{"@animoca/ethereum-contracts/contracts/security/base/TokenRecoveryBase.sol":{"TokenRecoveryBase":{"abi":[{"inputs":[{"internalType":"address[]","name":"accounts","type":"address[]"},{"internalType":"contract IERC20[]","name":"tokens","type":"address[]"},{"internalType":"uint256[]","name":"amounts","type":"uint256[]"}],"name":"recoverERC20s","outputs":[],"stateMutability":"nonpayable","type":"function"},{"inputs":[{"internalType":"address[]","name":"accounts","type":"address[]"},{"internalType":"contract IERC721[]","name":"contracts","type":"address[]"},{"internalType":"uint256[]","name":"tokenIds","type":"uint256[]"}],"name":"recoverERC721s","outputs":[],"stateMutability":"nonpayable","type":"function"},{"inputs":[{"internalType":"address payable[]","name":"accounts","type":"address[]"},{"internalType":"uint256[]","name":"amounts","type":"uint256[]"}],"name":"recoverETH","outputs":[],"stateMutability":"nonpayable","type":"function"}],"devdoc":{"details":"This contract is to be used via inheritance in a proxied implementation.Note: This contract requires ERC173 (Contract Ownership standard).","kind":"dev","methods":{"recoverERC20s(address[],address[],uint256[])":{"details":"Warning: this function should be overriden for contracts which are supposed to hold ERC20 tokens  so that the extraction is limited to only amounts sent accidentally.Reverts if the sender is not the contract owner.Reverts if `accounts`, `tokens` and `amounts` do not have the same length.Reverts if one of the ERC20 transfers fails for any reason.","params":{"accounts":"the list of accounts to transfer the tokens to.","amounts":"the list of token amounts to transfer.","tokens":"the list of ERC20 token addresses."}},"recoverERC721s(address[],address[],uint256[])":{"details":"Warning: this function should be overriden for contracts which are supposed to hold ERC721 tokens  so that the extraction is limited to only tokens sent accidentally.Reverts if the sender is not the contract owner.Reverts if `accounts`, `contracts` and `amounts` do not have the same length.Reverts if one of the ERC721 transfers fails for any reason.","params":{"accounts":"the list of accounts to transfer the tokens to.","contracts":"the list of ERC721 contract addresses.","tokenIds":"the list of token ids to transfer."}},"recoverETH(address[],uint256[])":{"details":"Note: While contracts can generally prevent accidental ETH transfer by implementating a reverting  `receive()` function, this can still be bypassed in a `selfdestruct(address)` scenario.Warning: this function should be overriden for contracts which are supposed to hold ETH tokens  so that the extraction is limited to only amounts sent accidentally.Reverts if the sender is not the contract owner.Reverts if `accounts` and `amounts` do not have the same length.Reverts if one of the ETH transfers fails for any reason.","params":{"accounts":"the list of accounts to transfer the tokens to.","amounts":"the list of token amounts to transfer."}}},"title":"Recovery mechanism for ETH/ERC20/ERC721 tokens accidentally sent to this contract (proxiable version).","version":1},"evm":{"bytecode":{"linkReferences":{},"object":"608060405234801561001057600080fd5b50610cef806100206000396000f3fe608060405234801561001057600080fd5b50600436106100415760003560e01c806373c8a95814610046578063c3666c361461005b578063f7ba94bd1461006e575b600080fd5b610059610054366004610a4e565b610081565b005b610059610069366004610a4e565b6101b1565b61005961007c366004610ae8565b610354565b610094335b61008e610440565b90610474565b8483811480156100a357508082145b61010e576040517f08c379a000000000000000000000000000000000000000000000000000000000815260206004820152601d60248201527f5265636f766572793a20696e636f6e73697374656e742061727261797300000060448201526064015b60405180910390fd5b60005b8181146101a75761019f88888381811061012d5761012d610b54565b90506020020160208101906101429190610ba8565b85858481811061015457610154610b54565b9050602002013588888581811061016d5761016d610b54565b90506020020160208101906101829190610ba8565b73ffffffffffffffffffffffffffffffffffffffff1691906104fb565b600101610111565b5050505050505050565b6101ba33610086565b8483811480156101c957508082145b61022f576040517f08c379a000000000000000000000000000000000000000000000000000000000815260206004820152601d60248201527f5265636f766572793a20696e636f6e73697374656e74206172726179730000006044820152606401610105565b60005b8181146101a75785858281811061024b5761024b610b54565b90506020020160208101906102609190610ba8565b73ffffffffffffffffffffffffffffffffffffffff166323b872dd308a8a8581811061028e5761028e610b54565b90506020020160208101906102a39190610ba8565b8787868181106102b5576102b5610b54565b6040517fffffffff0000000000000000000000000000000000000000000000000000000060e088901b16815273ffffffffffffffffffffffffffffffffffffffff958616600482015294909316602485015250602090910201356044820152606401600060405180830381600087803b15801561033157600080fd5b505af1158015610345573d6000803e3d6000fd5b50505050806001019050610232565b61035d33610086565b828181146103c7576040517f08c379a000000000000000000000000000000000000000000000000000000000815260206004820152601d60248201527f5265636f766572793a20696e636f6e73697374656e74206172726179730000006044820152606401610105565b60005b818114610438576104308484838181106103e6576103e6610b54565b905060200201358787848181106103ff576103ff610b54565b90506020020160208101906104149190610ba8565b73ffffffffffffffffffffffffffffffffffffffff169061058d565b6001016103ca565b505050505050565b60008061046e60017fc9ed16f33ab3a66c84bfd83099ccb2a8845871e2e1c1928f63797152f0fd54cd610bcc565b92915050565b815473ffffffffffffffffffffffffffffffffffffffff8281169116146104f7576040517f08c379a000000000000000000000000000000000000000000000000000000000815260206004820152601860248201527f4f776e6572736869703a206e6f7420746865206f776e657200000000000000006044820152606401610105565b5050565b6040805173ffffffffffffffffffffffffffffffffffffffff8416602482015260448082018490528251808303909101815260649091019091526020810180517bffffffffffffffffffffffffffffffffffffffffffffffffffffffff167fa9059cbb000000000000000000000000000000000000000000000000000000001790526105889084906106e7565b505050565b804710156105f7576040517f08c379a000000000000000000000000000000000000000000000000000000000815260206004820152601d60248201527f416464726573733a20696e73756666696369656e742062616c616e63650000006044820152606401610105565b60008273ffffffffffffffffffffffffffffffffffffffff168260405160006040518083038185875af1925050503d8060008114610651576040519150601f19603f3d011682016040523d82523d6000602084013e610656565b606091505b5050905080610588576040517f08c379a000000000000000000000000000000000000000000000000000000000815260206004820152603a60248201527f416464726573733a20756e61626c6520746f2073656e642076616c75652c207260448201527f6563697069656e74206d617920686176652072657665727465640000000000006064820152608401610105565b6000610749826040518060400160405280602081526020017f5361666545524332303a206c6f772d6c6576656c2063616c6c206661696c65648152508573ffffffffffffffffffffffffffffffffffffffff166107f39092919063ffffffff16565b80519091501561058857808060200190518101906107679190610c06565b610588576040517f08c379a000000000000000000000000000000000000000000000000000000000815260206004820152602a60248201527f5361666545524332303a204552433230206f7065726174696f6e20646964206e60448201527f6f742073756363656564000000000000000000000000000000000000000000006064820152608401610105565b6060610802848460008561080a565b949350505050565b60608247101561089c576040517f08c379a000000000000000000000000000000000000000000000000000000000815260206004820152602660248201527f416464726573733a20696e73756666696369656e742062616c616e636520666f60448201527f722063616c6c00000000000000000000000000000000000000000000000000006064820152608401610105565b6000808673ffffffffffffffffffffffffffffffffffffffff1685876040516108c59190610c4c565b60006040518083038185875af1925050503d8060008114610902576040519150601f19603f3d011682016040523d82523d6000602084013e610907565b606091505b509150915061091887838387610923565b979650505050505050565b606083156109b95782516000036109b25773ffffffffffffffffffffffffffffffffffffffff85163b6109b2576040517f08c379a000000000000000000000000000000000000000000000000000000000815260206004820152601d60248201527f416464726573733a2063616c6c20746f206e6f6e2d636f6e74726163740000006044820152606401610105565b5081610802565b61080283838151156109ce5781518083602001fd5b806040517f08c379a00000000000000000000000000000000000000000000000000000000081526004016101059190610c68565b60008083601f840112610a1457600080fd5b50813567ffffffffffffffff811115610a2c57600080fd5b6020830191508360208260051b8501011115610a4757600080fd5b9250929050565b60008060008060008060608789031215610a6757600080fd5b863567ffffffffffffffff80821115610a7f57600080fd5b610a8b8a838b01610a02565b90985096506020890135915080821115610aa457600080fd5b610ab08a838b01610a02565b90965094506040890135915080821115610ac957600080fd5b50610ad689828a01610a02565b979a9699509497509295939492505050565b60008060008060408587031215610afe57600080fd5b843567ffffffffffffffff80821115610b1657600080fd5b610b2288838901610a02565b90965094506020870135915080821115610b3b57600080fd5b50610b4887828801610a02565b95989497509550505050565b7f4e487b7100000000000000000000000000000000000000000000000000000000600052603260045260246000fd5b73ffffffffffffffffffffffffffffffffffffffff81168114610ba557600080fd5b50565b600060208284031215610bba57600080fd5b8135610bc581610b83565b9392505050565b8181038181111561046e577f4e487b7100000000000000000000000000000000000000000000000000000000600052601160045260246000fd5b600060208284031215610c1857600080fd5b81518015158114610bc557600080fd5b60005b83811015610c43578181015183820152602001610c2b565b50506000910152565b60008251610c5e818460208701610c28565b9190910192915050565b6020815260008251806020840152610c87816040850160208701610c28565b601f017fffffffffffffffffffffffffffffffffffffffffffffffffffffffffffffffe016919091016040019291505056fea26469706673582212206ced8f5cf2c471ed1b5cb59f2660a86f4d6e0e232856debef5e1d92b92b6c81464736f6c63430008110033","opcodes":"PUSH1 0x80 PUSH1 0x40 MSTORE CALLVALUE DUP1 ISZERO PUSH2 0x10 JUMPI PUSH1 0x0 DUP1 REVERT JUMPDEST POP PUSH2 0xCEF DUP1 PUSH2 0x20 PUSH1 0x0 CODECOPY PUSH1 0x0 RETURN INVALID PUSH1 0x80 PUSH1 0x40 MSTORE CALLVALUE DUP1 ISZERO PUSH2 0x10 JUMPI PUSH1 0x0 DUP1 REVERT JUMPDEST POP PUSH1 0x4 CALLDATASIZE LT PUSH2 0x41 JUMPI PUSH1 0x0 CALLDATALOAD PUSH1 0xE0 SHR DUP1 PUSH4 0x73C8A958 EQ PUSH2 0x46 JUMPI DUP1 PUSH4 0xC3666C36 EQ PUSH2 0x5B JUMPI DUP1 PUSH4 0xF7BA94BD EQ PUSH2 0x6E JUMPI JUMPDEST PUSH1 0x0 DUP1 REVERT JUMPDEST PUSH2 0x59 PUSH2 0x54 CALLDATASIZE PUSH1 0x4 PUSH2 0xA4E JUMP JUMPDEST PUSH2 0x81 JUMP JUMPDEST STOP JUMPDEST PUSH2 0x59 PUSH2 0x69 CALLDATASIZE PUSH1 0x4 PUSH2 0xA4E JUMP JUMPDEST PUSH2 0x1B1 JUMP JUMPDEST PUSH2 0x59 PUSH2 0x7C CALLDATASIZE PUSH1 0x4 PUSH2 0xAE8 JUMP JUMPDEST PUSH2 0x354 JUMP JUMPDEST PUSH2 0x94 CALLER JUMPDEST PUSH2 0x8E PUSH2 0x440 JUMP JUMPDEST SWAP1 PUSH2 0x474 JUMP JUMPDEST DUP5 DUP4 DUP2 EQ DUP1 ISZERO PUSH2 0xA3 JUMPI POP DUP1 DUP3 EQ JUMPDEST PUSH2 0x10E JUMPI PUSH1 0x40 MLOAD PUSH32 0x8C379A000000000000000000000000000000000000000000000000000000000 DUP2 MSTORE PUSH1 0x20 PUSH1 0x4 DUP3 ADD MSTORE PUSH1 0x1D PUSH1 0x24 DUP3 ADD MSTORE PUSH32 0x5265636F766572793A20696E636F6E73697374656E7420617272617973000000 PUSH1 0x44 DUP3 ADD MSTORE PUSH1 0x64 ADD JUMPDEST PUSH1 0x40 MLOAD DUP1 SWAP2 SUB SWAP1 REVERT JUMPDEST PUSH1 0x0 JUMPDEST DUP2 DUP2 EQ PUSH2 0x1A7 JUMPI PUSH2 0x19F DUP9 DUP9 DUP4 DUP2 DUP2 LT PUSH2 0x12D JUMPI PUSH2 0x12D PUSH2 0xB54 JUMP JUMPDEST SWAP1 POP PUSH1 0x20 MUL ADD PUSH1 0x20 DUP2 ADD SWAP1 PUSH2 0x142 SWAP2 SWAP1 PUSH2 0xBA8 JUMP JUMPDEST DUP6 DUP6 DUP5 DUP2 DUP2 LT PUSH2 0x154 JUMPI PUSH2 0x154 PUSH2 0xB54 JUMP JUMPDEST SWAP1 POP PUSH1 0x20 MUL ADD CALLDATALOAD DUP9 DUP9 DUP6 DUP2 DUP2 LT PUSH2 0x16D JUMPI PUSH2 0x16D PUSH2 0xB54 JUMP JUMPDEST SWAP1 POP PUSH1 0x20 MUL ADD PUSH1 0x20 DUP2 ADD SWAP1 PUSH2 0x182 SWAP2 SWAP1 PUSH2 0xBA8 JUMP JUMPDEST PUSH20 0xFFFFFFFFFFFFFFFFFFFFFFFFFFFFFFFFFFFFFFFF AND SWAP2 SWAP1 PUSH2 0x4FB JUMP JUMPDEST PUSH1 0x1 ADD PUSH2 0x111 JUMP JUMPDEST POP POP POP POP POP POP POP POP JUMP JUMPDEST PUSH2 0x1BA CALLER PUSH2 0x86 JUMP JUMPDEST DUP5 DUP4 DUP2 EQ DUP1 ISZERO PUSH2 0x1C9 JUMPI POP DUP1 DUP3 EQ JUMPDEST PUSH2 0x22F JUMPI PUSH1 0x40 MLOAD PUSH32 0x8C379A000000000000000000000000000000000000000000000000000000000 DUP2 MSTORE PUSH1 0x20 PUSH1 0x4 DUP3 ADD MSTORE PUSH1 0x1D PUSH1 0x24 DUP3 ADD MSTORE PUSH32 0x5265636F766572793A20696E636F6E73697374656E7420617272617973000000 PUSH1 0x44 DUP3 ADD MSTORE PUSH1 0x64 ADD PUSH2 0x105 JUMP JUMPDEST PUSH1 0x0 JUMPDEST DUP2 DUP2 EQ PUSH2 0x1A7 JUMPI DUP6 DUP6 DUP3 DUP2 DUP2 LT PUSH2 0x24B JUMPI PUSH2 0x24B PUSH2 0xB54 JUMP JUMPDEST SWAP1 POP PUSH1 0x20 MUL ADD PUSH1 0x20 DUP2 ADD SWAP1 PUSH2 0x260 SWAP2 SWAP1 PUSH2 0xBA8 JUMP JUMPDEST PUSH20 0xFFFFFFFFFFFFFFFFFFFFFFFFFFFFFFFFFFFFFFFF AND PUSH4 0x23B872DD ADDRESS DUP11 DUP11 DUP6 DUP2 DUP2 LT PUSH2 0x28E JUMPI PUSH2 0x28E PUSH2 0xB54 JUMP JUMPDEST SWAP1 POP PUSH1 0x20 MUL ADD PUSH1 0x20 DUP2 ADD SWAP1 PUSH2 0x2A3 SWAP2 SWAP1 PUSH2 0xBA8 JUMP JUMPDEST DUP8 DUP8 DUP7 DUP2 DUP2 LT PUSH2 0x2B5 JUMPI PUSH2 0x2B5 PUSH2 0xB54 JUMP JUMPDEST PUSH1 0x40 MLOAD PUSH32 0xFFFFFFFF00000000000000000000000000000000000000000000000000000000 PUSH1 0xE0 DUP9 SWAP1 SHL AND DUP2 MSTORE PUSH20 0xFFFFFFFFFFFFFFFFFFFFFFFFFFFFFFFFFFFFFFFF SWAP6 DUP7 AND PUSH1 0x4 DUP3 ADD MSTORE SWAP5 SWAP1 SWAP4 AND PUSH1 0x24 DUP6 ADD MSTORE POP PUSH1 0x20 SWAP1 SWAP2 MUL ADD CALLDATALOAD PUSH1 0x44 DUP3 ADD MSTORE PUSH1 0x64 ADD PUSH1 0x0 PUSH1 0x40 MLOAD DUP1 DUP4 SUB DUP2 PUSH1 0x0 DUP8 DUP1 EXTCODESIZE ISZERO DUP1 ISZERO PUSH2 0x331 JUMPI PUSH1 0x0 DUP1 REVERT JUMPDEST POP GAS CALL ISZERO DUP1 ISZERO PUSH2 0x345 JUMPI RETURNDATASIZE PUSH1 0x0 DUP1 RETURNDATACOPY RETURNDATASIZE PUSH1 0x0 REVERT JUMPDEST POP POP POP POP DUP1 PUSH1 0x1 ADD SWAP1 POP PUSH2 0x232 JUMP JUMPDEST PUSH2 0x35D CALLER PUSH2 0x86 JUMP JUMPDEST DUP3 DUP2 DUP2 EQ PUSH2 0x3C7 JUMPI PUSH1 0x40 MLOAD PUSH32 0x8C379A000000000000000000000000000000000000000000000000000000000 DUP2 MSTORE PUSH1 0x20 PUSH1 0x4 DUP3 ADD MSTORE PUSH1 0x1D PUSH1 0x24 DUP3 ADD MSTORE PUSH32 0x5265636F766572793A20696E636F6E73697374656E7420617272617973000000 PUSH1 0x44 DUP3 ADD MSTORE PUSH1 0x64 ADD PUSH2 0x105 JUMP JUMPDEST PUSH1 0x0 JUMPDEST DUP2 DUP2 EQ PUSH2 0x438 JUMPI PUSH2 0x430 DUP5 DUP5 DUP4 DUP2 DUP2 LT PUSH2 0x3E6 JUMPI PUSH2 0x3E6 PUSH2 0xB54 JUMP JUMPDEST SWAP1 POP PUSH1 0x20 MUL ADD CALLDATALOAD DUP8 DUP8 DUP5 DUP2 DUP2 LT PUSH2 0x3FF JUMPI PUSH2 0x3FF PUSH2 0xB54 JUMP JUMPDEST SWAP1 POP PUSH1 0x20 MUL ADD PUSH1 0x20 DUP2 ADD SWAP1 PUSH2 0x414 SWAP2 SWAP1 PUSH2 0xBA8 JUMP JUMPDEST PUSH20 0xFFFFFFFFFFFFFFFFFFFFFFFFFFFFFFFFFFFFFFFF AND SWAP1 PUSH2 0x58D JUMP JUMPDEST PUSH1 0x1 ADD PUSH2 0x3CA JUMP JUMPDEST POP POP POP POP POP POP JUMP JUMPDEST PUSH1 0x0 DUP1 PUSH2 0x46E PUSH1 0x1 PUSH32 0xC9ED16F33AB3A66C84BFD83099CCB2A8845871E2E1C1928F63797152F0FD54CD PUSH2 0xBCC JUMP JUMPDEST SWAP3 SWAP2 POP POP JUMP JUMPDEST DUP2 SLOAD PUSH20 0xFFFFFFFFFFFFFFFFFFFFFFFFFFFFFFFFFFFFFFFF DUP3 DUP2 AND SWAP2 AND EQ PUSH2 0x4F7 JUMPI PUSH1 0x40 MLOAD PUSH32 0x8C379A000000000000000000000000000000000000000000000000000000000 DUP2 MSTORE PUSH1 0x20 PUSH1 0x4 DUP3 ADD MSTORE PUSH1 0x18 PUSH1 0x24 DUP3 ADD MSTORE PUSH32 0x4F776E6572736869703A206E6F7420746865206F776E65720000000000000000 PUSH1 0x44 DUP3 ADD MSTORE PUSH1 0x64 ADD PUSH2 0x105 JUMP JUMPDEST POP POP JUMP JUMPDEST PUSH1 0x40 DUP1 MLOAD PUSH20 0xFFFFFFFFFFFFFFFFFFFFFFFFFFFFFFFFFFFFFFFF DUP5 AND PUSH1 0x24 DUP3 ADD MSTORE PUSH1 0x44 DUP1 DUP3 ADD DUP5 SWAP1 MSTORE DUP3 MLOAD DUP1 DUP4 SUB SWAP1 SWAP2 ADD DUP2 MSTORE PUSH1 0x64 SWAP1 SWAP2 ADD SWAP1 SWAP2 MSTORE PUSH1 0x20 DUP2 ADD DUP1 MLOAD PUSH28 0xFFFFFFFFFFFFFFFFFFFFFFFFFFFFFFFFFFFFFFFFFFFFFFFFFFFFFFFF AND PUSH32 0xA9059CBB00000000000000000000000000000000000000000000000000000000 OR SWAP1 MSTORE PUSH2 0x588 SWAP1 DUP5 SWAP1 PUSH2 0x6E7 JUMP JUMPDEST POP POP POP JUMP JUMPDEST DUP1 SELFBALANCE LT ISZERO PUSH2 0x5F7 JUMPI PUSH1 0x40 MLOAD PUSH32 0x8C379A000000000000000000000000000000000000000000000000000000000 DUP2 MSTORE PUSH1 0x20 PUSH1 0x4 DUP3 ADD MSTORE PUSH1 0x1D PUSH1 0x24 DUP3 ADD MSTORE PUSH32 0x416464726573733A20696E73756666696369656E742062616C616E6365000000 PUSH1 0x44 DUP3 ADD MSTORE PUSH1 0x64 ADD PUSH2 0x105 JUMP JUMPDEST PUSH1 0x0 DUP3 PUSH20 0xFFFFFFFFFFFFFFFFFFFFFFFFFFFFFFFFFFFFFFFF AND DUP3 PUSH1 0x40 MLOAD PUSH1 0x0 PUSH1 0x40 MLOAD DUP1 DUP4 SUB DUP2 DUP6 DUP8 GAS CALL SWAP3 POP POP POP RETURNDATASIZE DUP1 PUSH1 0x0 DUP2 EQ PUSH2 0x651 JUMPI PUSH1 0x40 MLOAD SWAP2 POP PUSH1 0x1F NOT PUSH1 0x3F RETURNDATASIZE ADD AND DUP3 ADD PUSH1 0x40 MSTORE RETURNDATASIZE DUP3 MSTORE RETURNDATASIZE PUSH1 0x0 PUSH1 0x20 DUP5 ADD RETURNDATACOPY PUSH2 0x656 JUMP JUMPDEST PUSH1 0x60 SWAP2 POP JUMPDEST POP POP SWAP1 POP DUP1 PUSH2 0x588 JUMPI PUSH1 0x40 MLOAD PUSH32 0x8C379A000000000000000000000000000000000000000000000000000000000 DUP2 MSTORE PUSH1 0x20 PUSH1 0x4 DUP3 ADD MSTORE PUSH1 0x3A PUSH1 0x24 DUP3 ADD MSTORE PUSH32 0x416464726573733A20756E61626C6520746F2073656E642076616C75652C2072 PUSH1 0x44 DUP3 ADD MSTORE PUSH32 0x6563697069656E74206D61792068617665207265766572746564000000000000 PUSH1 0x64 DUP3 ADD MSTORE PUSH1 0x84 ADD PUSH2 0x105 JUMP JUMPDEST PUSH1 0x0 PUSH2 0x749 DUP3 PUSH1 0x40 MLOAD DUP1 PUSH1 0x40 ADD PUSH1 0x40 MSTORE DUP1 PUSH1 0x20 DUP2 MSTORE PUSH1 0x20 ADD PUSH32 0x5361666545524332303A206C6F772D6C6576656C2063616C6C206661696C6564 DUP2 MSTORE POP DUP6 PUSH20 0xFFFFFFFFFFFFFFFFFFFFFFFFFFFFFFFFFFFFFFFF AND PUSH2 0x7F3 SWAP1 SWAP3 SWAP2 SWAP1 PUSH4 0xFFFFFFFF AND JUMP JUMPDEST DUP1 MLOAD SWAP1 SWAP2 POP ISZERO PUSH2 0x588 JUMPI DUP1 DUP1 PUSH1 0x20 ADD SWAP1 MLOAD DUP2 ADD SWAP1 PUSH2 0x767 SWAP2 SWAP1 PUSH2 0xC06 JUMP JUMPDEST PUSH2 0x588 JUMPI PUSH1 0x40 MLOAD PUSH32 0x8C379A000000000000000000000000000000000000000000000000000000000 DUP2 MSTORE PUSH1 0x20 PUSH1 0x4 DUP3 ADD MSTORE PUSH1 0x2A PUSH1 0x24 DUP3 ADD MSTORE PUSH32 0x5361666545524332303A204552433230206F7065726174696F6E20646964206E PUSH1 0x44 DUP3 ADD MSTORE PUSH32 0x6F74207375636365656400000000000000000000000000000000000000000000 PUSH1 0x64 DUP3 ADD MSTORE PUSH1 0x84 ADD PUSH2 0x105 JUMP JUMPDEST PUSH1 0x60 PUSH2 0x802 DUP5 DUP5 PUSH1 0x0 DUP6 PUSH2 0x80A JUMP JUMPDEST SWAP5 SWAP4 POP POP POP POP JUMP JUMPDEST PUSH1 0x60 DUP3 SELFBALANCE LT ISZERO PUSH2 0x89C JUMPI PUSH1 0x40 MLOAD PUSH32 0x8C379A000000000000000000000000000000000000000000000000000000000 DUP2 MSTORE PUSH1 0x20 PUSH1 0x4 DUP3 ADD MSTORE PUSH1 0x26 PUSH1 0x24 DUP3 ADD MSTORE PUSH32 0x416464726573733A20696E73756666696369656E742062616C616E636520666F PUSH1 0x44 DUP3 ADD MSTORE PUSH32 0x722063616C6C0000000000000000000000000000000000000000000000000000 PUSH1 0x64 DUP3 ADD MSTORE PUSH1 0x84 ADD PUSH2 0x105 JUMP JUMPDEST PUSH1 0x0 DUP1 DUP7 PUSH20 0xFFFFFFFFFFFFFFFFFFFFFFFFFFFFFFFFFFFFFFFF AND DUP6 DUP8 PUSH1 0x40 MLOAD PUSH2 0x8C5 SWAP2 SWAP1 PUSH2 0xC4C JUMP JUMPDEST PUSH1 0x0 PUSH1 0x40 MLOAD DUP1 DUP4 SUB DUP2 DUP6 DUP8 GAS CALL SWAP3 POP POP POP RETURNDATASIZE DUP1 PUSH1 0x0 DUP2 EQ PUSH2 0x902 JUMPI PUSH1 0x40 MLOAD SWAP2 POP PUSH1 0x1F NOT PUSH1 0x3F RETURNDATASIZE ADD AND DUP3 ADD PUSH1 0x40 MSTORE RETURNDATASIZE DUP3 MSTORE RETURNDATASIZE PUSH1 0x0 PUSH1 0x20 DUP5 ADD RETURNDATACOPY PUSH2 0x907 JUMP JUMPDEST PUSH1 0x60 SWAP2 POP JUMPDEST POP SWAP2 POP SWAP2 POP PUSH2 0x918 DUP8 DUP4 DUP4 DUP8 PUSH2 0x923 JUMP JUMPDEST SWAP8 SWAP7 POP POP POP POP POP POP POP JUMP JUMPDEST PUSH1 0x60 DUP4 ISZERO PUSH2 0x9B9 JUMPI DUP3 MLOAD PUSH1 0x0 SUB PUSH2 0x9B2 JUMPI PUSH20 0xFFFFFFFFFFFFFFFFFFFFFFFFFFFFFFFFFFFFFFFF DUP6 AND EXTCODESIZE PUSH2 0x9B2 JUMPI PUSH1 0x40 MLOAD PUSH32 0x8C379A000000000000000000000000000000000000000000000000000000000 DUP2 MSTORE PUSH1 0x20 PUSH1 0x4 DUP3 ADD MSTORE PUSH1 0x1D PUSH1 0x24 DUP3 ADD MSTORE PUSH32 0x416464726573733A2063616C6C20746F206E6F6E2D636F6E7472616374000000 PUSH1 0x44 DUP3 ADD MSTORE PUSH1 0x64 ADD PUSH2 0x105 JUMP JUMPDEST POP DUP2 PUSH2 0x802 JUMP JUMPDEST PUSH2 0x802 DUP4 DUP4 DUP2 MLOAD ISZERO PUSH2 0x9CE JUMPI DUP2 MLOAD DUP1 DUP4 PUSH1 0x20 ADD REVERT JUMPDEST DUP1 PUSH1 0x40 MLOAD PUSH32 0x8C379A000000000000000000000000000000000000000000000000000000000 DUP2 MSTORE PUSH1 0x4 ADD PUSH2 0x105 SWAP2 SWAP1 PUSH2 0xC68 JUMP JUMPDEST PUSH1 0x0 DUP1 DUP4 PUSH1 0x1F DUP5 ADD SLT PUSH2 0xA14 JUMPI PUSH1 0x0 DUP1 REVERT JUMPDEST POP DUP2 CALLDATALOAD PUSH8 0xFFFFFFFFFFFFFFFF DUP2 GT ISZERO PUSH2 0xA2C JUMPI PUSH1 0x0 DUP1 REVERT JUMPDEST PUSH1 0x20 DUP4 ADD SWAP2 POP DUP4 PUSH1 0x20 DUP3 PUSH1 0x5 SHL DUP6 ADD ADD GT ISZERO PUSH2 0xA47 JUMPI PUSH1 0x0 DUP1 REVERT JUMPDEST SWAP3 POP SWAP3 SWAP1 POP JUMP JUMPDEST PUSH1 0x0 DUP1 PUSH1 0x0 DUP1 PUSH1 0x0 DUP1 PUSH1 0x60 DUP8 DUP10 SUB SLT ISZERO PUSH2 0xA67 JUMPI PUSH1 0x0 DUP1 REVERT JUMPDEST DUP7 CALLDATALOAD PUSH8 0xFFFFFFFFFFFFFFFF DUP1 DUP3 GT ISZERO PUSH2 0xA7F JUMPI PUSH1 0x0 DUP1 REVERT JUMPDEST PUSH2 0xA8B DUP11 DUP4 DUP12 ADD PUSH2 0xA02 JUMP JUMPDEST SWAP1 SWAP9 POP SWAP7 POP PUSH1 0x20 DUP10 ADD CALLDATALOAD SWAP2 POP DUP1 DUP3 GT ISZERO PUSH2 0xAA4 JUMPI PUSH1 0x0 DUP1 REVERT JUMPDEST PUSH2 0xAB0 DUP11 DUP4 DUP12 ADD PUSH2 0xA02 JUMP JUMPDEST SWAP1 SWAP7 POP SWAP5 POP PUSH1 0x40 DUP10 ADD CALLDATALOAD SWAP2 POP DUP1 DUP3 GT ISZERO PUSH2 0xAC9 JUMPI PUSH1 0x0 DUP1 REVERT JUMPDEST POP PUSH2 0xAD6 DUP10 DUP3 DUP11 ADD PUSH2 0xA02 JUMP JUMPDEST SWAP8 SWAP11 SWAP7 SWAP10 POP SWAP5 SWAP8 POP SWAP3 SWAP6 SWAP4 SWAP5 SWAP3 POP POP POP JUMP JUMPDEST PUSH1 0x0 DUP1 PUSH1 0x0 DUP1 PUSH1 0x40 DUP6 DUP8 SUB SLT ISZERO PUSH2 0xAFE JUMPI PUSH1 0x0 DUP1 REVERT JUMPDEST DUP5 CALLDATALOAD PUSH8 0xFFFFFFFFFFFFFFFF DUP1 DUP3 GT ISZERO PUSH2 0xB16 JUMPI PUSH1 0x0 DUP1 REVERT JUMPDEST PUSH2 0xB22 DUP9 DUP4 DUP10 ADD PUSH2 0xA02 JUMP JUMPDEST SWAP1 SWAP7 POP SWAP5 POP PUSH1 0x20 DUP8 ADD CALLDATALOAD SWAP2 POP DUP1 DUP3 GT ISZERO PUSH2 0xB3B JUMPI PUSH1 0x0 DUP1 REVERT JUMPDEST POP PUSH2 0xB48 DUP8 DUP3 DUP9 ADD PUSH2 0xA02 JUMP JUMPDEST SWAP6 SWAP9 SWAP5 SWAP8 POP SWAP6 POP POP POP POP JUMP JUMPDEST PUSH32 0x4E487B7100000000000000000000000000000000000000000000000000000000 PUSH1 0x0 MSTORE PUSH1 0x32 PUSH1 0x4 MSTORE PUSH1 0x24 PUSH1 0x0 REVERT JUMPDEST PUSH20 0xFFFFFFFFFFFFFFFFFFFFFFFFFFFFFFFFFFFFFFFF DUP2 AND DUP2 EQ PUSH2 0xBA5 JUMPI PUSH1 0x0 DUP1 REVERT JUMPDEST POP JUMP JUMPDEST PUSH1 0x0 PUSH1 0x20 DUP3 DUP5 SUB SLT ISZERO PUSH2 0xBBA JUMPI PUSH1 0x0 DUP1 REVERT JUMPDEST DUP2 CALLDATALOAD PUSH2 0xBC5 DUP2 PUSH2 0xB83 JUMP JUMPDEST SWAP4 SWAP3 POP POP POP JUMP JUMPDEST DUP2 DUP2 SUB DUP2 DUP2 GT ISZERO PUSH2 0x46E JUMPI PUSH32 0x4E487B7100000000000000000000000000000000000000000000000000000000 PUSH1 0x0 MSTORE PUSH1 0x11 PUSH1 0x4 MSTORE PUSH1 0x24 PUSH1 0x0 REVERT JUMPDEST PUSH1 0x0 PUSH1 0x20 DUP3 DUP5 SUB SLT ISZERO PUSH2 0xC18 JUMPI PUSH1 0x0 DUP1 REVERT JUMPDEST DUP2 MLOAD DUP1 ISZERO ISZERO DUP2 EQ PUSH2 0xBC5 JUMPI PUSH1 0x0 DUP1 REVERT JUMPDEST PUSH1 0x0 JUMPDEST DUP4 DUP2 LT ISZERO PUSH2 0xC43 JUMPI DUP2 DUP2 ADD MLOAD DUP4 DUP3 ADD MSTORE PUSH1 0x20 ADD PUSH2 0xC2B JUMP JUMPDEST POP POP PUSH1 0x0 SWAP2 ADD MSTORE JUMP JUMPDEST PUSH1 0x0 DUP3 MLOAD PUSH2 0xC5E DUP2 DUP5 PUSH1 0x20 DUP8 ADD PUSH2 0xC28 JUMP JUMPDEST SWAP2 SWAP1 SWAP2 ADD SWAP3 SWAP2 POP POP JUMP JUMPDEST PUSH1 0x20 DUP2 MSTORE PUSH1 0x0 DUP3 MLOAD DUP1 PUSH1 0x20 DUP5 ADD MSTORE PUSH2 0xC87 DUP2 PUSH1 0x40 DUP6 ADD PUSH1 0x20 DUP8 ADD PUSH2 0xC28 JUMP JUMPDEST PUSH1 0x1F ADD PUSH32 0xFFFFFFFFFFFFFFFFFFFFFFFFFFFFFFFFFFFFFFFFFFFFFFFFFFFFFFFFFFFFFFE0 AND SWAP2 SWAP1 SWAP2 ADD PUSH1 0x40 ADD SWAP3 SWAP2 POP POP JUMP INVALID LOG2 PUSH5 0x6970667358 0x22 SLT KECCAK256 PUSH13 0xED8F5CF2C471ED1B5CB59F2660 0xA8 PUSH16 0x4D6E0E232856DEBEF5E1D92B92B6C814 PUSH5 0x736F6C6343 STOP ADDMOD GT STOP CALLER "},"gasEstimates":{"creation":{"codeDepositCost":"662200","executionCost":"696","totalCost":"662896"},"external":{"recoverERC20s(address[],address[],uint256[])":"infinite","recoverERC721s(address[],address[],uint256[])":"infinite","recoverETH(address[],uint256[])":"infinite"}},"methodIdentifiers":{"recoverERC20s(address[],address[],uint256[])":"73c8a958","recoverERC721s(address[],address[],uint256[])":"c3666c36","recoverETH(address[],uint256[])":"f7ba94bd"}},"storageLayout":{"storage":[],"types":null},"userdoc":{"kind":"user","methods":{"recoverERC20s(address[],address[],uint256[])":{"notice":"Extract ERC20 tokens which were accidentally sent to the contract to a list of accounts."},"recoverERC721s(address[],address[],uint256[])":{"notice":"Extract ERC721 tokens which were accidentally sent to the contract to a list of accounts."},"recoverETH(address[],uint256[])":{"notice":"Extract ETH tokens which were accidentally sent to the contract to a list of accounts."}},"version":1}}}}