{
  "_format": "hh-sol-artifact-1",
  "contractName": "OpenCampusGasStationMock",
  "sourceName": "contracts/OpenCampusGasStationMock.sol",
  "abi": [
    {
      "inputs": [
        {
          "internalType": "address payable[]",
          "name": "gasPumps",
          "type": "address[]"
        }
      ],
      "stateMutability": "nonpayable",
      "type": "constructor"
    },
    {
      "anonymous": false,
      "inputs": [
        {
          "indexed": true,
          "internalType": "address payable[]",
          "name": "oldGasPumps",
          "type": "address[]"
        },
        {
          "indexed": true,
          "internalType": "address payable",
          "name": "newGasPump",
          "type": "address"
        }
      ],
      "name": "AddGasPump",
      "type": "event"
    },
    {
      "anonymous": false,
      "inputs": [
        {
          "indexed": true,
          "internalType": "address payable[]",
          "name": "oldGasPumps",
          "type": "address[]"
        },
        {
          "indexed": true,
          "internalType": "address payable[]",
          "name": "newGasPumps",
          "type": "address[]"
        }
      ],
      "name": "GasPumpsSet",
      "type": "event"
    },
    {
      "anonymous": false,
      "inputs": [
        {
          "indexed": true,
          "internalType": "address",
          "name": "oldOwner",
          "type": "address"
        },
        {
          "indexed": true,
          "internalType": "address",
          "name": "newOwner",
          "type": "address"
        }
      ],
      "name": "OwnerSet",
      "type": "event"
    },
    {
      "anonymous": false,
      "inputs": [
        {
          "indexed": true,
          "internalType": "address",
          "name": "previousOwner",
          "type": "address"
        },
        {
          "indexed": true,
          "internalType": "address",
          "name": "newOwner",
          "type": "address"
        }
      ],
      "name": "OwnershipTransferred",
      "type": "event"
    },
    {
      "inputs": [],
      "name": "__msgData",
      "outputs": [
        {
          "internalType": "bytes",
          "name": "",
          "type": "bytes"
        }
      ],
      "stateMutability": "view",
      "type": "function"
    },
    {
      "inputs": [
        {
          "internalType": "address payable",
          "name": "newGasPump",
          "type": "address"
        }
      ],
      "name": "addGasPump",
      "outputs": [],
      "stateMutability": "nonpayable",
      "type": "function"
    },
    {
      "inputs": [],
      "name": "chargeAllPumps",
      "outputs": [],
      "stateMutability": "payable",
      "type": "function"
    },
    {
      "inputs": [
        {
          "internalType": "address payable[]",
          "name": "addrs",
          "type": "address[]"
        }
      ],
      "name": "chargePumps",
      "outputs": [],
      "stateMutability": "payable",
      "type": "function"
    },
    {
      "inputs": [],
      "name": "getGasPumps",
      "outputs": [
        {
          "internalType": "address payable[]",
          "name": "",
          "type": "address[]"
        }
      ],
      "stateMutability": "view",
      "type": "function"
    },
    {
      "inputs": [],
      "name": "owner",
      "outputs": [
        {
          "internalType": "address",
          "name": "",
          "type": "address"
        }
      ],
      "stateMutability": "view",
      "type": "function"
    },
    {
      "inputs": [
        {
          "internalType": "uint256",
          "name": "",
          "type": "uint256"
        }
      ],
      "name": "pumps",
      "outputs": [
        {
          "internalType": "address payable",
          "name": "",
          "type": "address"
        }
      ],
      "stateMutability": "view",
      "type": "function"
    },
    {
      "inputs": [
        {
          "internalType": "address[]",
          "name": "accounts",
          "type": "address[]"
        },
        {
          "internalType": "contract IERC20[]",
          "name": "tokens",
          "type": "address[]"
        },
        {
          "internalType": "uint256[]",
          "name": "amounts",
          "type": "uint256[]"
        }
      ],
      "name": "recoverERC20s",
      "outputs": [],
      "stateMutability": "nonpayable",
      "type": "function"
    },
    {
      "inputs": [
        {
          "internalType": "address[]",
          "name": "accounts",
          "type": "address[]"
        },
        {
          "internalType": "contract IERC721[]",
          "name": "contracts",
          "type": "address[]"
        },
        {
          "internalType": "uint256[]",
          "name": "tokenIds",
          "type": "uint256[]"
        }
      ],
      "name": "recoverERC721s",
      "outputs": [],
      "stateMutability": "nonpayable",
      "type": "function"
    },
    {
      "inputs": [
        {
          "internalType": "address payable[]",
          "name": "accounts",
          "type": "address[]"
        },
        {
          "internalType": "uint256[]",
          "name": "amounts",
          "type": "uint256[]"
        }
      ],
      "name": "recoverETH",
      "outputs": [],
      "stateMutability": "nonpayable",
      "type": "function"
    },
    {
      "inputs": [
        {
          "internalType": "address payable[]",
          "name": "_gasPumps",
          "type": "address[]"
        }
      ],
      "name": "setGasPumps",
      "outputs": [],
      "stateMutability": "nonpayable",
      "type": "function"
    },
    {
      "inputs": [
        {
          "internalType": "bytes4",
          "name": "interfaceId",
          "type": "bytes4"
        }
      ],
      "name": "supportsInterface",
      "outputs": [
        {
          "internalType": "bool",
          "name": "",
          "type": "bool"
        }
      ],
      "stateMutability": "view",
      "type": "function"
    },
    {
      "inputs": [
        {
          "internalType": "address",
          "name": "newOwner",
          "type": "address"
        }
      ],
      "name": "transferOwnership",
      "outputs": [],
      "stateMutability": "nonpayable",
      "type": "function"
    }
  ],
  "bytecode": "0x60806040523480156200001157600080fd5b506040516200258a3803806200258a83398101604081905262000034916200046b565b80336200006481620000506200007c60201b62000cd61760201c565b620000b260201b62000d041790919060201c565b50620000708162000145565b50503460025562000618565b600080620000ac60017fc9ed16f33ab3a66c84bfd83099ccb2a8845871e2e1c1928f63797152f0fd54cd62000553565b92915050565b6001600160a01b03811615620001095781546001600160a01b0319166001600160a01b03821690811783556040516000907f8be0079c531659141344cd1fd0a4f28419497f9722a3daafe3b4186f6b6457e0908290a35b620001416307f5828d60e41b60016200012c620002bc60201b62000dc11760201c565b620002ec60201b62000def179092919060201c565b5050565b6200014f62000379565b6001600160a01b0316336001600160a01b031614620001b55760405162461bcd60e51b815260206004820152601360248201527f43616c6c6572206973206e6f74206f776e65720000000000000000000000000060448201526064015b60405180910390fd5b80604051620001c5919062000569565b60405180910390206000604051620001de9190620005aa565b604051908190038120907f6d86fa282077cbb7e8dfb1e46d681667447b404489db833611f44ac272a3d64e90600090a360005b8151811015620002a657818181518110620002305762000230620005e6565b602002602001015160016000808481548110620002515762000251620005e6565b6000918252602080832091909101546001600160a01b039081168452908301939093526040909101902080546001600160a01b03191692909116919091179055806200029d81620005fc565b91505062000211565b50805162000141906000906020840190620003b7565b600080620000ac60017fca9d3e17f264b0f3984e2634e94adb37fa3e6a8103f06aeae6fa59e21c769f5e62000553565b600160e01b6001600160e01b03198316016200034b5760405162461bcd60e51b815260206004820152601f60248201527f496e74657266616365446574656374696f6e3a2077726f6e672076616c7565006044820152606401620001ac565b6001600160e01b03199190911660009081526020929092526040909120805460ff1916911515919091179055565b6000620003a5620003946200007c60201b62000cd61760201c565b620003aa60201b620006a21760201c565b905090565b546001600160a01b031690565b8280548282559060005260206000209081019282156200040f579160200282015b828111156200040f57825182546001600160a01b0319166001600160a01b03909116178255602090920191600190910190620003d8565b506200041d92915062000421565b5090565b5b808211156200041d576000815560010162000422565b634e487b7160e01b600052604160045260246000fd5b80516001600160a01b03811681146200046657600080fd5b919050565b600060208083850312156200047f57600080fd5b82516001600160401b03808211156200049757600080fd5b818501915085601f830112620004ac57600080fd5b815181811115620004c157620004c162000438565b8060051b604051601f19603f83011681018181108582111715620004e957620004e962000438565b6040529182528482019250838101850191888311156200050857600080fd5b938501935b82851015620005315762000521856200044e565b845293850193928501926200050d565b98975050505050505050565b634e487b7160e01b600052601160045260246000fd5b81810381811115620000ac57620000ac6200053d565b815160009082906020808601845b838110156200059e5781516001600160a01b03168552938201939082019060010162000577565b50929695505050505050565b60008183548391508460005260208060002060005b838110156200059e5781546001600160a01b031685529382019360019182019101620005bf565b634e487b7160e01b600052603260045260246000fd5b6000600182016200061157620006116200053d565b5060010190565b611f6280620006286000396000f3fe6080604052600436106100d25760003560e01c80638da5cb5b1161007f578063c3666c3611610059578063c3666c361461021b578063ce780aca1461023b578063f2fde38b14610243578063f7ba94bd1461026357600080fd5b80638da5cb5b146101a1578063adddc767146101db578063be17cf79146101fb57600080fd5b806331e66e1e116100b057806331e66e1e1461014157806373c8a9581461015f57806389cd7a7b1461017f57600080fd5b806301ffc9a7146100d75780631446cef91461010c57806327bd8ff114610121575b600080fd5b3480156100e357600080fd5b506100f76100f2366004611933565b610283565b60405190151581526020015b60405180910390f35b61011f61011a3660046119dd565b61029d565b005b34801561012d57600080fd5b5061011f61013c3660046119dd565b610343565b34801561014d57600080fd5b50600036604051610103929190611ac0565b34801561016b57600080fd5b5061011f61017a366004611b59565b6104fb565b34801561018b57600080fd5b50610194610626565b6040516101039190611bf3565b3480156101ad57600080fd5b506101b6610695565b60405173ffffffffffffffffffffffffffffffffffffffff9091168152602001610103565b3480156101e757600080fd5b506101b66101f6366004611c4d565b6106c1565b34801561020757600080fd5b5061011f610216366004611c66565b6106f8565b34801561022757600080fd5b5061011f610236366004611b59565b61092c565b61011f610acf565b34801561024f57600080fd5b5061011f61025e366004611c66565b610bd6565b34801561026f57600080fd5b5061011f61027e366004611c83565b610bea565b600061029782610291610dc1565b90610efb565b92915050565b60005461030b576040517f08c379a000000000000000000000000000000000000000000000000000000000815260206004820152600c60248201527f4e6f206761732070756d7073000000000000000000000000000000000000000060448201526064015b60405180910390fd5b346002600082825461031d9190611d1e565b9091555050805160025460009161033391611d31565b905061033f8282610fd5565b5050565b61034b610695565b73ffffffffffffffffffffffffffffffffffffffff163373ffffffffffffffffffffffffffffffffffffffff16146103df576040517f08c379a000000000000000000000000000000000000000000000000000000000815260206004820152601360248201527f43616c6c6572206973206e6f74206f776e6572000000000000000000000000006044820152606401610302565b806040516103ed9190611d6c565b604051809103902060006040516104049190611db8565b604051908190038120907f6d86fa282077cbb7e8dfb1e46d681667447b404489db833611f44ac272a3d64e90600090a360005b81518110156104e75781818151811061045257610452611dff565b60200260200101516001600080848154811061047057610470611dff565b60009182526020808320919091015473ffffffffffffffffffffffffffffffffffffffff9081168452908301939093526040909101902080547fffffffffffffffffffffffff00000000000000000000000000000000000000001692909116919091179055806104df81611e2e565b915050610437565b50805161033f906000906020840190611894565b61050e335b610508610cd6565b906110f7565b84838114801561051d57508082145b610583576040517f08c379a000000000000000000000000000000000000000000000000000000000815260206004820152601d60248201527f5265636f766572793a20696e636f6e73697374656e74206172726179730000006044820152606401610302565b60005b81811461061c576106148888838181106105a2576105a2611dff565b90506020020160208101906105b79190611c66565b8585848181106105c9576105c9611dff565b905060200201358888858181106105e2576105e2611dff565b90506020020160208101906105f79190611c66565b73ffffffffffffffffffffffffffffffffffffffff16919061117a565b600101610586565b5050505050505050565b6060600080548060200260200160405190810160405280929190818152602001828054801561068b57602002820191906000526020600020905b815473ffffffffffffffffffffffffffffffffffffffff168152600190910190602001808311610660575b5050505050905090565b60006106bc6106a2610cd6565b5473ffffffffffffffffffffffffffffffffffffffff1690565b905090565b600081815481106106d157600080fd5b60009182526020909120015473ffffffffffffffffffffffffffffffffffffffff16905081565b610700610695565b73ffffffffffffffffffffffffffffffffffffffff163373ffffffffffffffffffffffffffffffffffffffff1614610794576040517f08c379a000000000000000000000000000000000000000000000000000000000815260206004820152601360248201527f43616c6c6572206973206e6f74206f776e6572000000000000000000000000006044820152606401610302565b73ffffffffffffffffffffffffffffffffffffffff808216600081815260016020526040902054909116900361084c576040517f08c379a000000000000000000000000000000000000000000000000000000000815260206004820152602760248201527f4761732070756d7020697320616c72656164792070617274206f66207468652060448201527f73746174696f6e000000000000000000000000000000000000000000000000006064820152608401610302565b8073ffffffffffffffffffffffffffffffffffffffff1660006040516108729190611db8565b604051908190038120907f868c7c1b68eb457bbf178161003499135b6d8964256bb9df30c562717fbbd82790600090a360008054600181810183557f290decd9548b62a8d60345a988386fc84ba6bc95484008f6362f93160ef3e563909101805473ffffffffffffffffffffffffffffffffffffffff9094167fffffffffffffffffffffffff0000000000000000000000000000000000000000948516811790915580835260209190915260409091208054909216179055565b61093533610500565b84838114801561094457508082145b6109aa576040517f08c379a000000000000000000000000000000000000000000000000000000000815260206004820152601d60248201527f5265636f766572793a20696e636f6e73697374656e74206172726179730000006044820152606401610302565b60005b81811461061c578585828181106109c6576109c6611dff565b90506020020160208101906109db9190611c66565b73ffffffffffffffffffffffffffffffffffffffff166323b872dd308a8a85818110610a0957610a09611dff565b9050602002016020810190610a1e9190611c66565b878786818110610a3057610a30611dff565b6040517fffffffff0000000000000000000000000000000000000000000000000000000060e088901b16815273ffffffffffffffffffffffffffffffffffffffff958616600482015294909316602485015250602090910201356044820152606401600060405180830381600087803b158015610aac57600080fd5b505af1158015610ac0573d6000803e3d6000fd5b505050508060010190506109ad565b600054610b38576040517f08c379a000000000000000000000000000000000000000000000000000000000815260206004820152600c60248201527f4e6f206761732070756d707300000000000000000000000000000000000000006044820152606401610302565b3460026000828254610b4a9190611d1e565b909155505060008054600254610b609190611d31565b9050610bd36000805480602002602001604051908101604052809291908181526020018280548015610bc857602002820191906000526020600020905b815473ffffffffffffffffffffffffffffffffffffffff168152600190910190602001808311610b9d575b505050505082610fd5565b50565b610bd33382610be3610cd6565b9190611207565b610bf333610500565b82818114610c5d576040517f08c379a000000000000000000000000000000000000000000000000000000000815260206004820152601d60248201527f5265636f766572793a20696e636f6e73697374656e74206172726179730000006044820152606401610302565b60005b818114610cce57610cc6848483818110610c7c57610c7c611dff565b90506020020135878784818110610c9557610c95611dff565b9050602002016020810190610caa9190611c66565b73ffffffffffffffffffffffffffffffffffffffff1690611334565b600101610c60565b505050505050565b60008061029760017fc9ed16f33ab3a66c84bfd83099ccb2a8845871e2e1c1928f63797152f0fd54cd611e66565b73ffffffffffffffffffffffffffffffffffffffff811615610d8c5781547fffffffffffffffffffffffff00000000000000000000000000000000000000001673ffffffffffffffffffffffffffffffffffffffff821690811783556040516000907f8be0079c531659141344cd1fd0a4f28419497f9722a3daafe3b4186f6b6457e0908290a35b61033f7f7f5828d0000000000000000000000000000000000000000000000000000000006001610dba610dc1565b9190610def565b60008061029760017fca9d3e17f264b0f3984e2634e94adb37fa3e6a8103f06aeae6fa59e21c769f5e611e66565b7c01000000000000000000000000000000000000000000000000000000007fffffffff00000000000000000000000000000000000000000000000000000000831601610e97576040517f08c379a000000000000000000000000000000000000000000000000000000000815260206004820152601f60248201527f496e74657266616365446574656374696f6e3a2077726f6e672076616c7565006044820152606401610302565b7fffffffff00000000000000000000000000000000000000000000000000000000919091166000908152602092909252604090912080547fffffffffffffffffffffffffffffffffffffffffffffffffffffffffffffff0016911515919091179055565b60007c01000000000000000000000000000000000000000000000000000000007fffffffff00000000000000000000000000000000000000000000000000000000831601610f4b57506000610297565b7ffe003659000000000000000000000000000000000000000000000000000000007fffffffff00000000000000000000000000000000000000000000000000000000831601610f9c57506001610297565b507fffffffff00000000000000000000000000000000000000000000000000000000166000908152602091909152604090205460ff1690565b600060025411611041576040517f08c379a000000000000000000000000000000000000000000000000000000000815260206004820152601960248201527f4e6f7420656e6f7567682066756e647320696e207661756c74000000000000006044820152606401610302565b662386f26fc1000081116110b1576040517f08c379a000000000000000000000000000000000000000000000000000000000815260206004820152601a60248201527f4d696e696d756d20302e3120657468207065722077616c6c65740000000000006044820152606401610302565b60005b82518110156110f2576110e08382815181106110d2576110d2611dff565b60200260200101518361148e565b806110ea81611e2e565b9150506110b4565b505050565b815473ffffffffffffffffffffffffffffffffffffffff82811691161461033f576040517f08c379a000000000000000000000000000000000000000000000000000000000815260206004820152601860248201527f4f776e6572736869703a206e6f7420746865206f776e657200000000000000006044820152606401610302565b6040805173ffffffffffffffffffffffffffffffffffffffff8416602482015260448082018490528251808303909101815260649091019091526020810180517bffffffffffffffffffffffffffffffffffffffffffffffffffffffff167fa9059cbb000000000000000000000000000000000000000000000000000000001790526110f2908490611579565b825473ffffffffffffffffffffffffffffffffffffffff908116908316811461128c576040517f08c379a000000000000000000000000000000000000000000000000000000000815260206004820152601860248201527f4f776e6572736869703a206e6f7420746865206f776e657200000000000000006044820152606401610302565b8173ffffffffffffffffffffffffffffffffffffffff168173ffffffffffffffffffffffffffffffffffffffff161461132e5783547fffffffffffffffffffffffff00000000000000000000000000000000000000001673ffffffffffffffffffffffffffffffffffffffff8381169182178655604051908316907f8be0079c531659141344cd1fd0a4f28419497f9722a3daafe3b4186f6b6457e090600090a35b50505050565b8047101561139e576040517f08c379a000000000000000000000000000000000000000000000000000000000815260206004820152601d60248201527f416464726573733a20696e73756666696369656e742062616c616e63650000006044820152606401610302565b60008273ffffffffffffffffffffffffffffffffffffffff168260405160006040518083038185875af1925050503d80600081146113f8576040519150601f19603f3d011682016040523d82523d6000602084013e6113fd565b606091505b50509050806110f2576040517f08c379a000000000000000000000000000000000000000000000000000000000815260206004820152603a60248201527f416464726573733a20756e61626c6520746f2073656e642076616c75652c207260448201527f6563697069656e74206d617920686176652072657665727465640000000000006064820152608401610302565b73ffffffffffffffffffffffffffffffffffffffff8083166000818152600160205260409020549091161461151f576040517f08c379a000000000000000000000000000000000000000000000000000000000815260206004820152600e60248201527f556e646566696e65642070756d700000000000000000000000000000000000006044820152606401610302565b80600260008282546115319190611e66565b909155505060405173ffffffffffffffffffffffffffffffffffffffff83169082156108fc029083906000818181858888f193505050501580156110f2573d6000803e3d6000fd5b60006115db826040518060400160405280602081526020017f5361666545524332303a206c6f772d6c6576656c2063616c6c206661696c65648152508573ffffffffffffffffffffffffffffffffffffffff166116859092919063ffffffff16565b8051909150156110f257808060200190518101906115f99190611e79565b6110f2576040517f08c379a000000000000000000000000000000000000000000000000000000000815260206004820152602a60248201527f5361666545524332303a204552433230206f7065726174696f6e20646964206e60448201527f6f742073756363656564000000000000000000000000000000000000000000006064820152608401610302565b6060611694848460008561169c565b949350505050565b60608247101561172e576040517f08c379a000000000000000000000000000000000000000000000000000000000815260206004820152602660248201527f416464726573733a20696e73756666696369656e742062616c616e636520666f60448201527f722063616c6c00000000000000000000000000000000000000000000000000006064820152608401610302565b6000808673ffffffffffffffffffffffffffffffffffffffff1685876040516117579190611ebf565b60006040518083038185875af1925050503d8060008114611794576040519150601f19603f3d011682016040523d82523d6000602084013e611799565b606091505b50915091506117aa878383876117b5565b979650505050505050565b6060831561184b5782516000036118445773ffffffffffffffffffffffffffffffffffffffff85163b611844576040517f08c379a000000000000000000000000000000000000000000000000000000000815260206004820152601d60248201527f416464726573733a2063616c6c20746f206e6f6e2d636f6e74726163740000006044820152606401610302565b5081611694565b61169483838151156118605781518083602001fd5b806040517f08c379a00000000000000000000000000000000000000000000000000000000081526004016103029190611edb565b82805482825590600052602060002090810192821561190e579160200282015b8281111561190e57825182547fffffffffffffffffffffffff00000000000000000000000000000000000000001673ffffffffffffffffffffffffffffffffffffffff9091161782556020909201916001909101906118b4565b5061191a92915061191e565b5090565b5b8082111561191a576000815560010161191f565b60006020828403121561194557600080fd5b81357fffffffff000000000000000000000000000000000000000000000000000000008116811461197557600080fd5b9392505050565b7f4e487b7100000000000000000000000000000000000000000000000000000000600052604160045260246000fd5b73ffffffffffffffffffffffffffffffffffffffff81168114610bd357600080fd5b80356119d8816119ab565b919050565b600060208083850312156119f057600080fd5b823567ffffffffffffffff80821115611a0857600080fd5b818501915085601f830112611a1c57600080fd5b813581811115611a2e57611a2e61197c565b8060051b6040517fffffffffffffffffffffffffffffffffffffffffffffffffffffffffffffffe0603f83011681018181108582111715611a7157611a7161197c565b604052918252848201925083810185019188831115611a8f57600080fd5b938501935b82851015611ab457611aa5856119cd565b84529385019392850192611a94565b98975050505050505050565b60208152816020820152818360408301376000818301604090810191909152601f9092017fffffffffffffffffffffffffffffffffffffffffffffffffffffffffffffffe0160101919050565b60008083601f840112611b1f57600080fd5b50813567ffffffffffffffff811115611b3757600080fd5b6020830191508360208260051b8501011115611b5257600080fd5b9250929050565b60008060008060008060608789031215611b7257600080fd5b863567ffffffffffffffff80821115611b8a57600080fd5b611b968a838b01611b0d565b90985096506020890135915080821115611baf57600080fd5b611bbb8a838b01611b0d565b90965094506040890135915080821115611bd457600080fd5b50611be189828a01611b0d565b979a9699509497509295939492505050565b6020808252825182820181905260009190848201906040850190845b81811015611c4157835173ffffffffffffffffffffffffffffffffffffffff1683529284019291840191600101611c0f565b50909695505050505050565b600060208284031215611c5f57600080fd5b5035919050565b600060208284031215611c7857600080fd5b8135611975816119ab565b60008060008060408587031215611c9957600080fd5b843567ffffffffffffffff80821115611cb157600080fd5b611cbd88838901611b0d565b90965094506020870135915080821115611cd657600080fd5b50611ce387828801611b0d565b95989497509550505050565b7f4e487b7100000000000000000000000000000000000000000000000000000000600052601160045260246000fd5b8082018082111561029757610297611cef565b600082611d67577f4e487b7100000000000000000000000000000000000000000000000000000000600052601260045260246000fd5b500490565b815160009082906020808601845b83811015611dac57815173ffffffffffffffffffffffffffffffffffffffff1685529382019390820190600101611d7a565b50929695505050505050565b60008183548391508460005260208060002060005b83811015611dac57815473ffffffffffffffffffffffffffffffffffffffff1685529382019360019182019101611dcd565b7f4e487b7100000000000000000000000000000000000000000000000000000000600052603260045260246000fd5b60007fffffffffffffffffffffffffffffffffffffffffffffffffffffffffffffffff8203611e5f57611e5f611cef565b5060010190565b8181038181111561029757610297611cef565b600060208284031215611e8b57600080fd5b8151801515811461197557600080fd5b60005b83811015611eb6578181015183820152602001611e9e565b50506000910152565b60008251611ed1818460208701611e9b565b9190910192915050565b6020815260008251806020840152611efa816040850160208701611e9b565b601f017fffffffffffffffffffffffffffffffffffffffffffffffffffffffffffffffe016919091016040019291505056fea26469706673582212208f5fa975cc742d86c47c48b8be6f4963fec5868593241ac0269f19d012b517a064736f6c63430008110033",
  "linkReferences": {},
  "deployedLinkReferences": {}
}