{
  "_format": "hh-sol-artifact-1",
  "contractName": "EDuCoinMock",
  "sourceName": "contracts/EDuCoinMock.sol",
  "abi": [
    {
      "inputs": [
        {
          "internalType": "string",
          "name": "tokenName",
          "type": "string"
        },
        {
          "internalType": "string",
          "name": "tokenSymbol",
          "type": "string"
        },
        {
          "internalType": "uint8",
          "name": "tokenDecimals",
          "type": "uint8"
        },
        {
          "internalType": "address[]",
          "name": "recipients",
          "type": "address[]"
        },
        {
          "internalType": "uint256[]",
          "name": "amounts",
          "type": "uint256[]"
        },
        {
          "internalType": "contract IForwarderRegistry",
          "name": "forwarderRegistry",
          "type": "address"
        }
      ],
      "stateMutability": "nonpayable",
      "type": "constructor"
    },
    {
      "anonymous": false,
      "inputs": [
        {
          "indexed": true,
          "internalType": "address",
          "name": "owner",
          "type": "address"
        },
        {
          "indexed": true,
          "internalType": "address",
          "name": "spender",
          "type": "address"
        },
        {
          "indexed": false,
          "internalType": "uint256",
          "name": "value",
          "type": "uint256"
        }
      ],
      "name": "Approval",
      "type": "event"
    },
    {
      "anonymous": false,
      "inputs": [
        {
          "indexed": true,
          "internalType": "address",
          "name": "previousOwner",
          "type": "address"
        },
        {
          "indexed": true,
          "internalType": "address",
          "name": "newOwner",
          "type": "address"
        }
      ],
      "name": "OwnershipTransferred",
      "type": "event"
    },
    {
      "anonymous": false,
      "inputs": [
        {
          "indexed": false,
          "internalType": "bytes32",
          "name": "role",
          "type": "bytes32"
        },
        {
          "indexed": false,
          "internalType": "address",
          "name": "account",
          "type": "address"
        },
        {
          "indexed": false,
          "internalType": "address",
          "name": "operator",
          "type": "address"
        }
      ],
      "name": "RoleGranted",
      "type": "event"
    },
    {
      "anonymous": false,
      "inputs": [
        {
          "indexed": false,
          "internalType": "bytes32",
          "name": "role",
          "type": "bytes32"
        },
        {
          "indexed": false,
          "internalType": "address",
          "name": "account",
          "type": "address"
        },
        {
          "indexed": false,
          "internalType": "address",
          "name": "operator",
          "type": "address"
        }
      ],
      "name": "RoleRevoked",
      "type": "event"
    },
    {
      "anonymous": false,
      "inputs": [
        {
          "indexed": true,
          "internalType": "address",
          "name": "from",
          "type": "address"
        },
        {
          "indexed": true,
          "internalType": "address",
          "name": "to",
          "type": "address"
        },
        {
          "indexed": false,
          "internalType": "uint256",
          "name": "value",
          "type": "uint256"
        }
      ],
      "name": "Transfer",
      "type": "event"
    },
    {
      "inputs": [],
      "name": "DOMAIN_SEPARATOR",
      "outputs": [
        {
          "internalType": "bytes32",
          "name": "",
          "type": "bytes32"
        }
      ],
      "stateMutability": "view",
      "type": "function"
    },
    {
      "inputs": [],
      "name": "MINTER_ROLE",
      "outputs": [
        {
          "internalType": "bytes32",
          "name": "",
          "type": "bytes32"
        }
      ],
      "stateMutability": "view",
      "type": "function"
    },
    {
      "inputs": [],
      "name": "__msgData",
      "outputs": [
        {
          "internalType": "bytes",
          "name": "",
          "type": "bytes"
        }
      ],
      "stateMutability": "view",
      "type": "function"
    },
    {
      "inputs": [
        {
          "internalType": "address",
          "name": "owner",
          "type": "address"
        },
        {
          "internalType": "address",
          "name": "spender",
          "type": "address"
        }
      ],
      "name": "allowance",
      "outputs": [
        {
          "internalType": "uint256",
          "name": "value",
          "type": "uint256"
        }
      ],
      "stateMutability": "view",
      "type": "function"
    },
    {
      "inputs": [
        {
          "internalType": "address",
          "name": "spender",
          "type": "address"
        },
        {
          "internalType": "uint256",
          "name": "value",
          "type": "uint256"
        }
      ],
      "name": "approve",
      "outputs": [
        {
          "internalType": "bool",
          "name": "result",
          "type": "bool"
        }
      ],
      "stateMutability": "nonpayable",
      "type": "function"
    },
    {
      "inputs": [
        {
          "internalType": "address",
          "name": "owner",
          "type": "address"
        }
      ],
      "name": "balanceOf",
      "outputs": [
        {
          "internalType": "uint256",
          "name": "balance",
          "type": "uint256"
        }
      ],
      "stateMutability": "view",
      "type": "function"
    },
    {
      "inputs": [
        {
          "internalType": "address[]",
          "name": "recipients",
          "type": "address[]"
        },
        {
          "internalType": "uint256[]",
          "name": "values",
          "type": "uint256[]"
        }
      ],
      "name": "batchMint",
      "outputs": [],
      "stateMutability": "nonpayable",
      "type": "function"
    },
    {
      "inputs": [
        {
          "internalType": "address[]",
          "name": "recipients",
          "type": "address[]"
        },
        {
          "internalType": "uint256[]",
          "name": "values",
          "type": "uint256[]"
        }
      ],
      "name": "batchTransfer",
      "outputs": [
        {
          "internalType": "bool",
          "name": "",
          "type": "bool"
        }
      ],
      "stateMutability": "nonpayable",
      "type": "function"
    },
    {
      "inputs": [
        {
          "internalType": "address",
          "name": "from",
          "type": "address"
        },
        {
          "internalType": "address[]",
          "name": "recipients",
          "type": "address[]"
        },
        {
          "internalType": "uint256[]",
          "name": "values",
          "type": "uint256[]"
        }
      ],
      "name": "batchTransferFrom",
      "outputs": [
        {
          "internalType": "bool",
          "name": "",
          "type": "bool"
        }
      ],
      "stateMutability": "nonpayable",
      "type": "function"
    },
    {
      "inputs": [],
      "name": "decimals",
      "outputs": [
        {
          "internalType": "uint8",
          "name": "",
          "type": "uint8"
        }
      ],
      "stateMutability": "view",
      "type": "function"
    },
    {
      "inputs": [
        {
          "internalType": "address",
          "name": "spender",
          "type": "address"
        },
        {
          "internalType": "uint256",
          "name": "subtractedValue",
          "type": "uint256"
        }
      ],
      "name": "decreaseAllowance",
      "outputs": [
        {
          "internalType": "bool",
          "name": "result",
          "type": "bool"
        }
      ],
      "stateMutability": "nonpayable",
      "type": "function"
    },
    {
      "inputs": [],
      "name": "forwarderRegistry",
      "outputs": [
        {
          "internalType": "contract IForwarderRegistry",
          "name": "",
          "type": "address"
        }
      ],
      "stateMutability": "view",
      "type": "function"
    },
    {
      "inputs": [
        {
          "internalType": "bytes32",
          "name": "role",
          "type": "bytes32"
        },
        {
          "internalType": "address",
          "name": "account",
          "type": "address"
        }
      ],
      "name": "grantRole",
      "outputs": [],
      "stateMutability": "nonpayable",
      "type": "function"
    },
    {
      "inputs": [
        {
          "internalType": "bytes32",
          "name": "role",
          "type": "bytes32"
        },
        {
          "internalType": "address",
          "name": "account",
          "type": "address"
        }
      ],
      "name": "hasRole",
      "outputs": [
        {
          "internalType": "bool",
          "name": "",
          "type": "bool"
        }
      ],
      "stateMutability": "view",
      "type": "function"
    },
    {
      "inputs": [
        {
          "internalType": "address",
          "name": "spender",
          "type": "address"
        },
        {
          "internalType": "uint256",
          "name": "addedValue",
          "type": "uint256"
        }
      ],
      "name": "increaseAllowance",
      "outputs": [
        {
          "internalType": "bool",
          "name": "result",
          "type": "bool"
        }
      ],
      "stateMutability": "nonpayable",
      "type": "function"
    },
    {
      "inputs": [
        {
          "internalType": "address",
          "name": "forwarder",
          "type": "address"
        }
      ],
      "name": "isTrustedForwarder",
      "outputs": [
        {
          "internalType": "bool",
          "name": "",
          "type": "bool"
        }
      ],
      "stateMutability": "view",
      "type": "function"
    },
    {
      "inputs": [
        {
          "internalType": "address",
          "name": "to",
          "type": "address"
        },
        {
          "internalType": "uint256",
          "name": "value",
          "type": "uint256"
        }
      ],
      "name": "mint",
      "outputs": [],
      "stateMutability": "nonpayable",
      "type": "function"
    },
    {
      "inputs": [],
      "name": "name",
      "outputs": [
        {
          "internalType": "string",
          "name": "",
          "type": "string"
        }
      ],
      "stateMutability": "view",
      "type": "function"
    },
    {
      "inputs": [
        {
          "internalType": "address",
          "name": "owner",
          "type": "address"
        }
      ],
      "name": "nonces",
      "outputs": [
        {
          "internalType": "uint256",
          "name": "",
          "type": "uint256"
        }
      ],
      "stateMutability": "view",
      "type": "function"
    },
    {
      "inputs": [],
      "name": "owner",
      "outputs": [
        {
          "internalType": "address",
          "name": "",
          "type": "address"
        }
      ],
      "stateMutability": "view",
      "type": "function"
    },
    {
      "inputs": [
        {
          "internalType": "address",
          "name": "owner",
          "type": "address"
        },
        {
          "internalType": "address",
          "name": "spender",
          "type": "address"
        },
        {
          "internalType": "uint256",
          "name": "value",
          "type": "uint256"
        },
        {
          "internalType": "uint256",
          "name": "deadline",
          "type": "uint256"
        },
        {
          "internalType": "uint8",
          "name": "v",
          "type": "uint8"
        },
        {
          "internalType": "bytes32",
          "name": "r",
          "type": "bytes32"
        },
        {
          "internalType": "bytes32",
          "name": "s",
          "type": "bytes32"
        }
      ],
      "name": "permit",
      "outputs": [],
      "stateMutability": "nonpayable",
      "type": "function"
    },
    {
      "inputs": [
        {
          "internalType": "address[]",
          "name": "accounts",
          "type": "address[]"
        },
        {
          "internalType": "contract IERC20[]",
          "name": "tokens",
          "type": "address[]"
        },
        {
          "internalType": "uint256[]",
          "name": "amounts",
          "type": "uint256[]"
        }
      ],
      "name": "recoverERC20s",
      "outputs": [],
      "stateMutability": "nonpayable",
      "type": "function"
    },
    {
      "inputs": [
        {
          "internalType": "address[]",
          "name": "accounts",
          "type": "address[]"
        },
        {
          "internalType": "contract IERC721[]",
          "name": "contracts",
          "type": "address[]"
        },
        {
          "internalType": "uint256[]",
          "name": "tokenIds",
          "type": "uint256[]"
        }
      ],
      "name": "recoverERC721s",
      "outputs": [],
      "stateMutability": "nonpayable",
      "type": "function"
    },
    {
      "inputs": [
        {
          "internalType": "address payable[]",
          "name": "accounts",
          "type": "address[]"
        },
        {
          "internalType": "uint256[]",
          "name": "amounts",
          "type": "uint256[]"
        }
      ],
      "name": "recoverETH",
      "outputs": [],
      "stateMutability": "nonpayable",
      "type": "function"
    },
    {
      "inputs": [
        {
          "internalType": "bytes32",
          "name": "role",
          "type": "bytes32"
        }
      ],
      "name": "renounceRole",
      "outputs": [],
      "stateMutability": "nonpayable",
      "type": "function"
    },
    {
      "inputs": [
        {
          "internalType": "bytes32",
          "name": "role",
          "type": "bytes32"
        },
        {
          "internalType": "address",
          "name": "account",
          "type": "address"
        }
      ],
      "name": "revokeRole",
      "outputs": [],
      "stateMutability": "nonpayable",
      "type": "function"
    },
    {
      "inputs": [
        {
          "internalType": "address",
          "name": "to",
          "type": "address"
        },
        {
          "internalType": "uint256",
          "name": "value",
          "type": "uint256"
        },
        {
          "internalType": "bytes",
          "name": "data",
          "type": "bytes"
        }
      ],
      "name": "safeTransfer",
      "outputs": [
        {
          "internalType": "bool",
          "name": "",
          "type": "bool"
        }
      ],
      "stateMutability": "nonpayable",
      "type": "function"
    },
    {
      "inputs": [
        {
          "internalType": "address",
          "name": "from",
          "type": "address"
        },
        {
          "internalType": "address",
          "name": "to",
          "type": "address"
        },
        {
          "internalType": "uint256",
          "name": "value",
          "type": "uint256"
        },
        {
          "internalType": "bytes",
          "name": "data",
          "type": "bytes"
        }
      ],
      "name": "safeTransferFrom",
      "outputs": [
        {
          "internalType": "bool",
          "name": "",
          "type": "bool"
        }
      ],
      "stateMutability": "nonpayable",
      "type": "function"
    },
    {
      "inputs": [
        {
          "internalType": "string",
          "name": "uri",
          "type": "string"
        }
      ],
      "name": "setTokenURI",
      "outputs": [],
      "stateMutability": "nonpayable",
      "type": "function"
    },
    {
      "inputs": [
        {
          "internalType": "bytes4",
          "name": "interfaceId",
          "type": "bytes4"
        }
      ],
      "name": "supportsInterface",
      "outputs": [
        {
          "internalType": "bool",
          "name": "",
          "type": "bool"
        }
      ],
      "stateMutability": "view",
      "type": "function"
    },
    {
      "inputs": [],
      "name": "symbol",
      "outputs": [
        {
          "internalType": "string",
          "name": "",
          "type": "string"
        }
      ],
      "stateMutability": "view",
      "type": "function"
    },
    {
      "inputs": [],
      "name": "tokenURI",
      "outputs": [
        {
          "internalType": "string",
          "name": "",
          "type": "string"
        }
      ],
      "stateMutability": "view",
      "type": "function"
    },
    {
      "inputs": [],
      "name": "totalSupply",
      "outputs": [
        {
          "internalType": "uint256",
          "name": "supply",
          "type": "uint256"
        }
      ],
      "stateMutability": "view",
      "type": "function"
    },
    {
      "inputs": [
        {
          "internalType": "address",
          "name": "to",
          "type": "address"
        },
        {
          "internalType": "uint256",
          "name": "value",
          "type": "uint256"
        }
      ],
      "name": "transfer",
      "outputs": [
        {
          "internalType": "bool",
          "name": "result",
          "type": "bool"
        }
      ],
      "stateMutability": "nonpayable",
      "type": "function"
    },
    {
      "inputs": [
        {
          "internalType": "address",
          "name": "from",
          "type": "address"
        },
        {
          "internalType": "address",
          "name": "to",
          "type": "address"
        },
        {
          "internalType": "uint256",
          "name": "value",
          "type": "uint256"
        }
      ],
      "name": "transferFrom",
      "outputs": [
        {
          "internalType": "bool",
          "name": "result",
          "type": "bool"
        }
      ],
      "stateMutability": "nonpayable",
      "type": "function"
    },
    {
      "inputs": [
        {
          "internalType": "address",
          "name": "newOwner",
          "type": "address"
        }
      ],
      "name": "transferOwnership",
      "outputs": [],
      "stateMutability": "nonpayable",
      "type": "function"
    }
  ],
  "bytecode": "0x60a06040523480156200001157600080fd5b50604051620051693803806200516983398101604081905262000034916200092f565b858585858585808033888888620000556200017260201b62000e221760201c565b6200008783838362000071620001d660201b62000e861760201c565b6200020c60201b62000eb417909392919060201c565b505050620000b881620000a46200027b60201b62000f331760201c565b620002ab60201b62000f611790919060201c565b50620000ce6200032960201b620010171760201c565b620000e36200034e60201b620010471760201c565b620000f86200037160201b620010751760201c565b6200010d6200039460201b620010a31760201c565b6001600160a01b0316608052506200014b838362000136620003b7602090811b620010d117901c565b620003e760201b620010ff179092919060201c565b505050505050620001666200063960201b620013d61760201c565b50505050505062000b9f565b6000620001896200065c60201b620014001760201c565b9050620001af6336372b0760e01b6001836200068c60201b6200142e179092919060201c565b620001d3634e83a8c360e11b6001836200068c60201b6200142e179092919060201c565b50565b6000806200020660017f335df4119bbb04f056b33eba33b826d3529129e458faf6daa9924b5a8f3b6a8262000a0c565b92915050565b8362000219848262000abd565b50600184016200022a838262000abd565b5060028401805460ff191660ff83161790556200027563a219a02560e01b6001620002606200065c602090811b6200140017901c565b6200068c60201b6200142e179092919060201c565b50505050565b6000806200020660017fc9ed16f33ab3a66c84bfd83099ccb2a8845871e2e1c1928f63797152f0fd54cd62000a0c565b6001600160a01b03811615620003025781546001600160a01b0319166001600160a01b03821690811783556040516000907f8be0079c531659141344cd1fd0a4f28419497f9722a3daafe3b4186f6b6457e0908290a35b620003256307f5828d60e41b6001620002606200065c60201b620014001760201c565b5050565b6200034c6303c130d960e41b6001620002606200065c60201b620014001760201c565b565b6200034c634ec7fbed60e11b6001620002606200065c60201b620014001760201c565b6200034c6353f41a9760e01b6001620002606200065c60201b620014001760201c565b6200034c63602993f360e11b6001620002606200065c60201b620014001760201c565b6000806200020660017f1da92899d3da68bf9787824388a37ea2bfa79780bcef91b9716c390eec8ecbef62000a0c565b8151815181146200043f5760405162461bcd60e51b815260206004820152601a60248201527f45524332303a20696e636f6e73697374656e742061727261797300000000000060448201526064015b60405180910390fd5b806000036200044e5750505050565b6000805b828114620005ca57600085828151811062000471576200047162000b89565b6020026020010151905060006001600160a01b0316816001600160a01b031603620004df5760405162461bcd60e51b815260206004820152601960248201527f45524332303a206d696e7420746f206164647265737328302900000000000000604482015260640162000436565b6000858381518110620004f657620004f662000b89565b60200260200101519050806000146200057e578381018481116200055d5760405162461bcd60e51b815260206004820152601660248201527f45524332303a2076616c756573206f766572666c6f7700000000000000000000604482015260640162000436565b6001600160a01b038316600090815260208a90526040902080548301905593505b6040518181526001600160a01b038316906000907fddf252ad1be2c89b69c2b068fc378daa952ba7f163c4a11628f55a4df523b3ef9060200160405180910390a3505060010162000452565b508015620006325760028501548181018181116200062b5760405162461bcd60e51b815260206004820152601660248201527f45524332303a20737570706c79206f766572666c6f7700000000000000000000604482015260640162000436565b6002870155505b5050505050565b6200034c63144b1f0f60e11b6001620002606200065c60201b620014001760201c565b6000806200020660017fca9d3e17f264b0f3984e2634e94adb37fa3e6a8103f06aeae6fa59e21c769f5e62000a0c565b600160e01b6001600160e01b0319831601620006eb5760405162461bcd60e51b815260206004820152601f60248201527f496e74657266616365446574656374696f6e3a2077726f6e672076616c756500604482015260640162000436565b6001600160e01b03199190911660009081526020929092526040909120805460ff1916911515919091179055565b634e487b7160e01b600052604160045260246000fd5b604051601f8201601f191681016001600160401b03811182821017156200075a576200075a62000719565b604052919050565b600082601f8301126200077457600080fd5b81516001600160401b0381111562000790576200079062000719565b6020620007a6601f8301601f191682016200072f565b8281528582848701011115620007bb57600080fd5b60005b83811015620007db578581018301518282018401528201620007be565b506000928101909101919091529392505050565b805160ff811681146200080157600080fd5b919050565b60006001600160401b0382111562000822576200082262000719565b5060051b60200190565b6001600160a01b0381168114620001d357600080fd5b600082601f8301126200085457600080fd5b815160206200086d620008678362000806565b6200072f565b82815260059290921b840181019181810190868411156200088d57600080fd5b8286015b84811015620008b5578051620008a7816200082c565b835291830191830162000891565b509695505050505050565b600082601f830112620008d257600080fd5b81516020620008e5620008678362000806565b82815260059290921b840181019181810190868411156200090557600080fd5b8286015b84811015620008b5578051835291830191830162000909565b805162000801816200082c565b60008060008060008060c087890312156200094957600080fd5b86516001600160401b03808211156200096157600080fd5b6200096f8a838b0162000762565b975060208901519150808211156200098657600080fd5b620009948a838b0162000762565b9650620009a460408a01620007ef565b95506060890151915080821115620009bb57600080fd5b620009c98a838b0162000842565b94506080890151915080821115620009e057600080fd5b50620009ef89828a01620008c0565b92505062000a0060a0880162000922565b90509295509295509295565b818103818111156200020657634e487b7160e01b600052601160045260246000fd5b600181811c9082168062000a4357607f821691505b60208210810362000a6457634e487b7160e01b600052602260045260246000fd5b50919050565b601f82111562000ab857600081815260208120601f850160051c8101602086101562000a935750805b601f850160051c820191505b8181101562000ab45782815560010162000a9f565b5050505b505050565b81516001600160401b0381111562000ad95762000ad962000719565b62000af18162000aea845462000a2e565b8462000a6a565b602080601f83116001811462000b29576000841562000b105750858301515b600019600386901b1c1916600185901b17855562000ab4565b600085815260208120601f198616915b8281101562000b5a5788860151825594840194600190910190840162000b39565b508582101562000b795787850151600019600388901b60f8161c191681555b5050505050600190811b01905550565b634e487b7160e01b600052603260045260246000fd5b60805161458b62000bde600039600081816102dc015281816103bf01528181613652015281816136da0152818161378d01526137cb015261458b6000f3fe608060405234801561001057600080fd5b506004361061025c5760003560e01c80637ecebe0011610145578063c3666c36116100bd578063dd62ed3e1161008c578063eb79554911610071578063eb79554914610550578063f2fde38b14610563578063f7ba94bd1461057657600080fd5b8063dd62ed3e1461052a578063e0df5b6f1461053d57600080fd5b8063c3666c36146104ca578063d505accf146104dd578063d5391393146104f0578063d547741f1461051757600080fd5b806391d1485411610114578063a457c2d7116100f9578063a457c2d714610491578063a9059cbb146104a4578063b88d4fde146104b757600080fd5b806391d148541461047657806395d89b411461048957600080fd5b80637ecebe001461043557806388d695b2146104485780638bb9c5bf1461045b5780638da5cb5b1461046e57600080fd5b80633644e515116101d85780634885b254116101a7578063685731071161018c57806368573107146103fc57806370a082311461040f57806373c8a9581461042257600080fd5b80634885b2541461039c578063572b6c05146103af57600080fd5b80633644e51514610366578063395093511461036e5780633c130d901461038157806340c10f191461038957600080fd5b806323b872dd1161022f5780632f2ff15d116102145780632f2ff15d14610321578063313ce5671461033657806331e66e1e1461035057600080fd5b806323b872dd146102c75780632b4c9f16146102da57600080fd5b806301ffc9a71461026157806306fdde0314610289578063095ea7b31461029e57806318160ddd146102b1575b600080fd5b61027461026f366004613b26565b610589565b60405190151581526020015b60405180910390f35b6102916105a3565b6040516102809190613bb1565b6102746102ac366004613be6565b6105ba565b6102b96105e2565b604051908152602001610280565b6102746102d5366004613c12565b6105f6565b7f00000000000000000000000000000000000000000000000000000000000000005b60405173ffffffffffffffffffffffffffffffffffffffff9091168152602001610280565b61033461032f366004613c53565b610621565b005b61033e61065a565b60405160ff9091168152602001610280565b610358610671565b604051610280929190613c83565b6102b9610684565b61027461037c366004613be6565b61068e565b6102916106ad565b610334610397366004613be6565b6106ba565b6102746103aa366004613d1c565b61070d565b6102746103bd366004613d9f565b7f000000000000000000000000000000000000000000000000000000000000000073ffffffffffffffffffffffffffffffffffffffff90811691161490565b61033461040a366004613dbc565b61073e565b6102b961041d366004613d9f565b6107e8565b610334610430366004613e28565b610820565b6102b9610443366004613d9f565b610950565b610274610456366004613dbc565b61095e565b610334610469366004613ec2565b61098d565b6102fc6109ab565b610274610484366004613c53565b6109d2565b610291610a1d565b61027461049f366004613be6565b610a2f565b6102746104b2366004613be6565b610a4e565b6102746104c5366004613f1d565b610a6d565b6103346104d8366004613e28565b610a92565b6103346104eb366004613f7f565b610c37565b6102b97f6d696e746572000000000000000000000000000000000000000000000000000081565b610334610525366004613c53565b610c5e565b6102b9610538366004613ff6565b610c8c565b61033461054b366004614024565b610cd7565b61027461055e366004614066565b610cf6565b610334610571366004613d9f565b610d19565b610334610584366004613dbc565b610d34565b600061059d82610597611400565b9061153a565b92915050565b60606105b56105b0610e86565b611614565b905090565b60006105d96105c76116aa565b84846105d16110d1565b9291906116b4565b50600192915050565b60006105b56105ef6110d1565b6002015490565b60006106176106036116aa565b85858561060e6110d1565b939291906117a3565b5060019392505050565b600061062b6116aa565b905061063f81610639610f33565b906117ee565b61065583838361064d611871565b92919061189f565b505050565b60006105b5610667610e86565b6002015460ff1690565b36600061067c611975565b915091509091565b60006105b5611980565b60006105d961069b6116aa565b84846106a56110d1565b929190611a1b565b60606105b56105b0611be7565b6106f57f6d696e74657200000000000000000000000000000000000000000000000000006106e66116aa565b6106ee611871565b9190611c15565b61070982826107026110d1565b9190611cc1565b5050565b600061073261071a6116aa565b87878787876107276110d1565b959493929190611e3a565b50600195945050505050565b61076a7f6d696e74657200000000000000000000000000000000000000000000000000006106e66116aa565b6107e2848480806020026020016040519081016040528093929190818152602001838360200280828437600092019190915250506040805160208088028281018201909352878252909350879250869182918501908490808284376000920191909152506107db92506110d1915050565b91906110ff565b50505050565b600061059d826107f66110d1565b9073ffffffffffffffffffffffffffffffffffffffff166000908152602091909152604090205490565b61083361082b6116aa565b610639610f33565b84838114801561084257508082145b6108ad576040517f08c379a000000000000000000000000000000000000000000000000000000000815260206004820152601d60248201527f5265636f766572793a20696e636f6e73697374656e742061727261797300000060448201526064015b60405180910390fd5b60005b8181146109465761093e8888838181106108cc576108cc6140b6565b90506020020160208101906108e19190613d9f565b8585848181106108f3576108f36140b6565b9050602002013588888581811061090c5761090c6140b6565b90506020020160208101906109219190613d9f565b73ffffffffffffffffffffffffffffffffffffffff169190612280565b6001016108b0565b5050505050505050565b600061059d826107f661230d565b600061098161096b6116aa565b868686866109776110d1565b949392919061233b565b5060015b949350505050565b6109a86109986116aa565b826109a1611871565b919061271d565b50565b60006105b56109b8610f33565b5473ffffffffffffffffffffffffffffffffffffffff1690565b6000610a1683836109e1611871565b60009283526020908152604080842073ffffffffffffffffffffffffffffffffffffffff909316845291905290205460ff1690565b9392505050565b60606105b5610a2a610e86565b6127c1565b60006105d9610a3c6116aa565b8484610a466110d1565b9291906127d2565b60006105d9610a5b6116aa565b8484610a656110d1565b929190612924565b6000610732610a7a6116aa565b8787878787610a876110d1565b959493929190612b05565b610a9d61082b6116aa565b848381148015610aac57508082145b610b12576040517f08c379a000000000000000000000000000000000000000000000000000000000815260206004820152601d60248201527f5265636f766572793a20696e636f6e73697374656e742061727261797300000060448201526064016108a4565b60005b81811461094657858582818110610b2e57610b2e6140b6565b9050602002016020810190610b439190613d9f565b73ffffffffffffffffffffffffffffffffffffffff166323b872dd308a8a85818110610b7157610b716140b6565b9050602002016020810190610b869190613d9f565b878786818110610b9857610b986140b6565b6040517fffffffff0000000000000000000000000000000000000000000000000000000060e088901b16815273ffffffffffffffffffffffffffffffffffffffff958616600482015294909316602485015250602090910201356044820152606401600060405180830381600087803b158015610c1457600080fd5b505af1158015610c28573d6000803e3d6000fd5b50505050806001019050610b15565b610c5587878787878787610c4961230d565b96959493929190612b72565b50505050505050565b6000610c686116aa565b9050610c7681610639610f33565b610655838383610c84611871565b929190612e6e565b6000610a168383610c9b6110d1565b919073ffffffffffffffffffffffffffffffffffffffff9182166000908152600193909301602090815260408085209290931684525290205490565b610ce261082b6116aa565b6107098282610cef611be7565b9190612f38565b6000610981610d036116aa565b86868686610d0f6110d1565b9493929190612f44565b6109a8610d246116aa565b82610d2d610f33565b9190612fb0565b610d3f61082b6116aa565b82818114610da9576040517f08c379a000000000000000000000000000000000000000000000000000000000815260206004820152601d60248201527f5265636f766572793a20696e636f6e73697374656e742061727261797300000060448201526064016108a4565b60005b818114610e1a57610e12848483818110610dc857610dc86140b6565b90506020020135878784818110610de157610de16140b6565b9050602002016020810190610df69190613d9f565b73ffffffffffffffffffffffffffffffffffffffff16906130dc565b600101610dac565b505050505050565b6000610e2c611400565b9050610e5a817f36372b0700000000000000000000000000000000000000000000000000000000600161142e565b6109a8817f9d07518600000000000000000000000000000000000000000000000000000000600161142e565b60008061059d60017f335df4119bbb04f056b33eba33b826d3529129e458faf6daa9924b5a8f3b6a826140e5565b83610ebf84826141e7565b5060018401610ece83826141e7565b506002840180547fffffffffffffffffffffffffffffffffffffffffffffffffffffffffffffff001660ff83161790556107e27fa219a025000000000000000000000000000000000000000000000000000000006001610f2c611400565b919061142e565b60008061059d60017fc9ed16f33ab3a66c84bfd83099ccb2a8845871e2e1c1928f63797152f0fd54cd6140e5565b73ffffffffffffffffffffffffffffffffffffffff811615610fe95781547fffffffffffffffffffffffff00000000000000000000000000000000000000001673ffffffffffffffffffffffffffffffffffffffff821690811783556040516000907f8be0079c531659141344cd1fd0a4f28419497f9722a3daafe3b4186f6b6457e0908290a35b6107097f7f5828d0000000000000000000000000000000000000000000000000000000006001610f2c611400565b6110457f3c130d90000000000000000000000000000000000000000000000000000000006001610f2c611400565b565b6110457f9d8ff7da000000000000000000000000000000000000000000000000000000006001610f2c611400565b6110457f53f41a97000000000000000000000000000000000000000000000000000000006001610f2c611400565b6110457fc05327e6000000000000000000000000000000000000000000000000000000006001610f2c611400565b60008061059d60017f1da92899d3da68bf9787824388a37ea2bfa79780bcef91b9716c390eec8ecbef6140e5565b81518151811461116b576040517f08c379a000000000000000000000000000000000000000000000000000000000815260206004820152601a60248201527f45524332303a20696e636f6e73697374656e742061727261797300000000000060448201526064016108a4565b806000036111795750505050565b6000805b828114611350576000858281518110611198576111986140b6565b60200260200101519050600073ffffffffffffffffffffffffffffffffffffffff168173ffffffffffffffffffffffffffffffffffffffff1603611238576040517f08c379a000000000000000000000000000000000000000000000000000000000815260206004820152601960248201527f45524332303a206d696e7420746f20616464726573732830290000000000000060448201526064016108a4565b600085838151811061124c5761124c6140b6565b60200260200101519050806000146112f8578381018481116112ca576040517f08c379a000000000000000000000000000000000000000000000000000000000815260206004820152601660248201527f45524332303a2076616c756573206f766572666c6f770000000000000000000060448201526064016108a4565b73ffffffffffffffffffffffffffffffffffffffff8316600090815260208a90526040902080548301905593505b60405181815273ffffffffffffffffffffffffffffffffffffffff8316906000907fddf252ad1be2c89b69c2b068fc378daa952ba7f163c4a11628f55a4df523b3ef9060200160405180910390a3505060010161117d565b5080156113cf5760028501548181018181116113c8576040517f08c379a000000000000000000000000000000000000000000000000000000000815260206004820152601660248201527f45524332303a20737570706c79206f766572666c6f770000000000000000000060448201526064016108a4565b6002870155505b5050505050565b6110457f28963e1e000000000000000000000000000000000000000000000000000000006001610f2c5b60008061059d60017fca9d3e17f264b0f3984e2634e94adb37fa3e6a8103f06aeae6fa59e21c769f5e6140e5565b7c01000000000000000000000000000000000000000000000000000000007fffffffff000000000000000000000000000000000000000000000000000000008316016114d6576040517f08c379a000000000000000000000000000000000000000000000000000000000815260206004820152601f60248201527f496e74657266616365446574656374696f6e3a2077726f6e672076616c75650060448201526064016108a4565b7fffffffff00000000000000000000000000000000000000000000000000000000919091166000908152602092909252604090912080547fffffffffffffffffffffffffffffffffffffffffffffffffffffffffffffff0016911515919091179055565b60007c01000000000000000000000000000000000000000000000000000000007fffffffff0000000000000000000000000000000000000000000000000000000083160161158a5750600061059d565b7ffe003659000000000000000000000000000000000000000000000000000000007fffffffff000000000000000000000000000000000000000000000000000000008316016115db5750600161059d565b507fffffffff00000000000000000000000000000000000000000000000000000000166000908152602091909152604090205460ff1690565b60608160000180546116259061414e565b80601f01602080910402602001604051908101604052809291908181526020018280546116519061414e565b801561169e5780601f106116735761010080835404028352916020019161169e565b820191906000526020600020905b81548152906001019060200180831161168157829003601f168201915b50505050509050919050565b60006105b5613236565b73ffffffffffffffffffffffffffffffffffffffff8216611731576040517f08c379a000000000000000000000000000000000000000000000000000000000815260206004820152601d60248201527f45524332303a20617070726f76616c20746f206164647265737328302900000060448201526064016108a4565b73ffffffffffffffffffffffffffffffffffffffff838116600081815260018701602090815260408083209487168084529482529182902085905590518481527f8c5be1e5ebec7d5bd14f71427d1e84f3dd0314c0f7b2291e5b200ac8c7c3b92591015b60405180910390a350505050565b8373ffffffffffffffffffffffffffffffffffffffff168373ffffffffffffffffffffffffffffffffffffffff16146117e2576117e2858486846127d2565b6113cf85848484612924565b815473ffffffffffffffffffffffffffffffffffffffff828116911614610709576040517f08c379a000000000000000000000000000000000000000000000000000000000815260206004820152601860248201527f4f776e6572736869703a206e6f7420746865206f776e6572000000000000000060448201526064016108a4565b60008061059d60017fc8827d3282af6f37b64c3e9e6f3ac9df286ab0bb0fccd6f8661bf19adb368b236140e5565b60008381526020858152604080832073ffffffffffffffffffffffffffffffffffffffff8616845290915290205460ff166107e25760008381526020858152604080832073ffffffffffffffffffffffffffffffffffffffff8681168086529184529382902080547fffffffffffffffffffffffffffffffffffffffffffffffffffffffffffffff00166001179055815187815292830152918316918101919091527f2f8788117e7eff1d82e926ec794901d17c78024a50270940304540a733656f0d906060015b60405180910390a150505050565b36600061067c613240565b6000467f8b73c3c69bb8fe3d512ecc4cf759cc79239f7b179b0ffacaa9a75d522b39400f6119af6105b0610e86565b80516020918201206040805192830193909352918101919091527fc89efdaa54c0f20c7adf612882df0950f5a951637e0307cdcb4c672f298b8bc66060820152608081018290523060a082015260c0016040516020818303038152906040528051906020012091505090565b73ffffffffffffffffffffffffffffffffffffffff8216611a98576040517f08c379a000000000000000000000000000000000000000000000000000000000815260206004820152601d60248201527f45524332303a20617070726f76616c20746f206164647265737328302900000060448201526064016108a4565b73ffffffffffffffffffffffffffffffffffffffff80841660009081526001860160209081526040808320938616835292905220548115611b7957808201818111611b3f576040517f08c379a000000000000000000000000000000000000000000000000000000000815260206004820152601960248201527f45524332303a20616c6c6f77616e6365206f766572666c6f770000000000000060448201526064016108a4565b73ffffffffffffffffffffffffffffffffffffffff8086166000908152600188016020908152604080832093881683529290522081905590505b8273ffffffffffffffffffffffffffffffffffffffff168473ffffffffffffffffffffffffffffffffffffffff167f8c5be1e5ebec7d5bd14f71427d1e84f3dd0314c0f7b2291e5b200ac8c7c3b92583604051611bd891815260200190565b60405180910390a35050505050565b60008061059d60017ff41bf6a5db26bffdfab174dcf66b31fbba8fdb7e3db040721ce1e62d61839ceb6140e5565b60008281526020848152604080832073ffffffffffffffffffffffffffffffffffffffff8516845290915290205460ff1661065557611c538261324b565b604051602001611c639190614301565b604080517fffffffffffffffffffffffffffffffffffffffffffffffffffffffffffffffe0818403018152908290527f08c379a00000000000000000000000000000000000000000000000000000000082526108a491600401613bb1565b73ffffffffffffffffffffffffffffffffffffffff8216611d3e576040517f08c379a000000000000000000000000000000000000000000000000000000000815260206004820152601960248201527f45524332303a206d696e7420746f20616464726573732830290000000000000060448201526064016108a4565b8015611de7576002830154818101818111611db5576040517f08c379a000000000000000000000000000000000000000000000000000000000815260206004820152601660248201527f45524332303a20737570706c79206f766572666c6f770000000000000000000060448201526064016108a4565b60028501555073ffffffffffffffffffffffffffffffffffffffff821660009081526020849052604090208054820190555b60405181815273ffffffffffffffffffffffffffffffffffffffff8316906000907fddf252ad1be2c89b69c2b068fc378daa952ba7f163c4a11628f55a4df523b3ef9060200160405180910390a3505050565b82818114611ea4576040517f08c379a000000000000000000000000000000000000000000000000000000000815260206004820152601a60248201527f45524332303a20696e636f6e73697374656e742061727261797300000000000060448201526064016108a4565b80600003611eb25750610c55565b73ffffffffffffffffffffffffffffffffffffffff86166000908152602089905260408120549080805b848114612188576000898983818110611ef757611ef76140b6565b9050602002016020810190611f0c9190613d9f565b905073ffffffffffffffffffffffffffffffffffffffff8116611f8b576040517f08c379a000000000000000000000000000000000000000000000000000000000815260206004820152601d60248201527f45524332303a207472616e7366657220746f206164647265737328302900000060448201526064016108a4565b6000888884818110611f9f57611f9f6140b6565b905060200201359050806000146121175784810185811161201c576040517f08c379a000000000000000000000000000000000000000000000000000000000815260206004820152601660248201527f45524332303a2076616c756573206f766572666c6f770000000000000000000060448201526064016108a4565b8095508273ffffffffffffffffffffffffffffffffffffffff168d73ffffffffffffffffffffffffffffffffffffffff16146120a657818f60000160008573ffffffffffffffffffffffffffffffffffffffff1673ffffffffffffffffffffffffffffffffffffffff16815260200190815260200160002060008282540192505081905550612115565b86821115612110576040517f08c379a000000000000000000000000000000000000000000000000000000000815260206004820152601b60248201527f45524332303a20696e73756666696369656e742062616c616e6365000000000060448201526064016108a4565b938101935b505b8173ffffffffffffffffffffffffffffffffffffffff168c73ffffffffffffffffffffffffffffffffffffffff167fddf252ad1be2c89b69c2b068fc378daa952ba7f163c4a11628f55a4df523b3ef8360405161217691815260200190565b60405180910390a35050600101611edc565b5081158015906121985750808214155b1561223457818303838110612209576040517f08c379a000000000000000000000000000000000000000000000000000000000815260206004820152601b60248201527f45524332303a20696e73756666696369656e742062616c616e6365000000000060448201526064016108a4565b73ffffffffffffffffffffffffffffffffffffffff8a16600090815260208d90526040902090820190555b8973ffffffffffffffffffffffffffffffffffffffff168973ffffffffffffffffffffffffffffffffffffffff1614612273576122738b8a8c856127d2565b5050505050505050505050565b6040805173ffffffffffffffffffffffffffffffffffffffff8416602482015260448082018490528251808303909101815260649091019091526020810180517bffffffffffffffffffffffffffffffffffffffffffffffffffffffff167fa9059cbb000000000000000000000000000000000000000000000000000000001790526106559084906133dd565b60008061059d60017f93fe0ff7226b064a4a8f0b09910762afb4bc2441835792c021ffd78cd513011e6140e5565b828181146123a5576040517f08c379a000000000000000000000000000000000000000000000000000000000815260206004820152601a60248201527f45524332303a20696e636f6e73697374656e742061727261797300000000000060448201526064016108a4565b806000036123b35750610e1a565b73ffffffffffffffffffffffffffffffffffffffff86166000908152602088905260408120549080805b8481146126655760008989838181106123f8576123f86140b6565b905060200201602081019061240d9190613d9f565b905073ffffffffffffffffffffffffffffffffffffffff811661248c576040517f08c379a000000000000000000000000000000000000000000000000000000000815260206004820152601d60248201527f45524332303a207472616e7366657220746f206164647265737328302900000060448201526064016108a4565b60008888848181106124a0576124a06140b6565b905060200201359050806000146125f45784810185811161251d576040517f08c379a000000000000000000000000000000000000000000000000000000000815260206004820152601660248201527f45524332303a2076616c756573206f766572666c6f770000000000000000000060448201526064016108a4565b8095508273ffffffffffffffffffffffffffffffffffffffff168d73ffffffffffffffffffffffffffffffffffffffff16146125835773ffffffffffffffffffffffffffffffffffffffff8316600090815260208f9052604090208054830190556125f2565b868211156125ed576040517f08c379a000000000000000000000000000000000000000000000000000000000815260206004820152601b60248201527f45524332303a20696e73756666696369656e742062616c616e6365000000000060448201526064016108a4565b938101935b505b8173ffffffffffffffffffffffffffffffffffffffff168c73ffffffffffffffffffffffffffffffffffffffff167fddf252ad1be2c89b69c2b068fc378daa952ba7f163c4a11628f55a4df523b3ef8360405161265391815260200190565b60405180910390a350506001016123dd565b5081158015906126755750808214155b15612711578183038381106126e6576040517f08c379a000000000000000000000000000000000000000000000000000000000815260206004820152601b60248201527f45524332303a20696e73756666696369656e742062616c616e6365000000000060448201526064016108a4565b73ffffffffffffffffffffffffffffffffffffffff8a16600090815260208c90526040902090820190555b50505050505050505050565b612728838284611c15565b60008181526020848152604080832073ffffffffffffffffffffffffffffffffffffffff86168085529083529281902080547fffffffffffffffffffffffffffffffffffffffffffffffffffffffffffffff0016905580518481529182018390528101919091527ff6391f5c32d9c69d2a47ea670b442974b53935d1edc7fd64eb21e047a839171b9060600160405180910390a1505050565b60608160010180546116259061414e565b73ffffffffffffffffffffffffffffffffffffffff821661284f576040517f08c379a000000000000000000000000000000000000000000000000000000000815260206004820152601d60248201527f45524332303a20617070726f76616c20746f206164647265737328302900000060448201526064016108a4565b73ffffffffffffffffffffffffffffffffffffffff80841660009081526001860160209081526040808320938616835292905220547fffffffffffffffffffffffffffffffffffffffffffffffffffffffffffffffff81148015906128b357508115155b15611b7957818103818110611b3f576040517f08c379a000000000000000000000000000000000000000000000000000000000815260206004820152601d60248201527f45524332303a20696e73756666696369656e7420616c6c6f77616e636500000060448201526064016108a4565b73ffffffffffffffffffffffffffffffffffffffff82166129a1576040517f08c379a000000000000000000000000000000000000000000000000000000000815260206004820152601d60248201527f45524332303a207472616e7366657220746f206164647265737328302900000060448201526064016108a4565b8015612aa65773ffffffffffffffffffffffffffffffffffffffff8316600090815260208590526040902054818103818110612a39576040517f08c379a000000000000000000000000000000000000000000000000000000000815260206004820152601b60248201527f45524332303a20696e73756666696369656e742062616c616e6365000000000060448201526064016108a4565b8373ffffffffffffffffffffffffffffffffffffffff168573ffffffffffffffffffffffffffffffffffffffff1614612aa35773ffffffffffffffffffffffffffffffffffffffff8086166000908152602088905260408082208490559186168152208054840190555b50505b8173ffffffffffffffffffffffffffffffffffffffff168373ffffffffffffffffffffffffffffffffffffffff167fddf252ad1be2c89b69c2b068fc378daa952ba7f163c4a11628f55a4df523b3ef8360405161179591815260200190565b612b1287878787876117a3565b73ffffffffffffffffffffffffffffffffffffffff84163b15610c5557610c558686868686868080601f0160208091040260200160405190810160405280939291908181526020018383808284376000920191909152506134e992505050565b73ffffffffffffffffffffffffffffffffffffffff8716612bef576040517f08c379a000000000000000000000000000000000000000000000000000000000815260206004820152601d60248201527f45524332303a207065726d69742066726f6d206164647265737328302900000060448201526064016108a4565b83421115612c59576040517f08c379a000000000000000000000000000000000000000000000000000000000815260206004820152601560248201527f45524332303a2065787069726564207065726d6974000000000000000000000060448201526064016108a4565b73ffffffffffffffffffffffffffffffffffffffff878116600081815260208b8152604080832080546001810190915581517f6e71edae12b1b97f4d1f60370fef10105fa2faae0126114a169c64845d6126c98185015280830195909552948b166060850152608084018a905260a084019490945260c08084018990528451808503909101815260e09093019093528151919092012090612cf8611980565b6040517f19010000000000000000000000000000000000000000000000000000000000006020820152602281019190915260428101839052606201604080517fffffffffffffffffffffffffffffffffffffffffffffffffffffffffffffffe08184030181528282528051602091820120600080855291840180845281905260ff89169284019290925260608301879052608083018690529092509060019060a0016020604051602081039080840390855afa158015612dbc573d6000803e3d6000fd5b5050506020604051035190508973ffffffffffffffffffffffffffffffffffffffff168173ffffffffffffffffffffffffffffffffffffffff1614612e5d576040517f08c379a000000000000000000000000000000000000000000000000000000000815260206004820152601560248201527f45524332303a20696e76616c6964207065726d6974000000000000000000000060448201526064016108a4565b5050506109468787876105d16110d1565b60008381526020858152604080832073ffffffffffffffffffffffffffffffffffffffff8616845290915290205460ff16156107e25760008381526020858152604080832073ffffffffffffffffffffffffffffffffffffffff8681168086529184529382902080547fffffffffffffffffffffffffffffffffffffffffffffffffffffffffffffff00169055815187815292830152918316918101919091527ff6391f5c32d9c69d2a47ea670b442974b53935d1edc7fd64eb21e047a839171b90606001611967565b826107e282848361436d565b612f5086868686612924565b73ffffffffffffffffffffffffffffffffffffffff84163b15610e1a57610e1a8586868686868080601f0160208091040260200160405190810160405280939291908181526020018383808284376000920191909152506134e992505050565b825473ffffffffffffffffffffffffffffffffffffffff9081169083168114613035576040517f08c379a000000000000000000000000000000000000000000000000000000000815260206004820152601860248201527f4f776e6572736869703a206e6f7420746865206f776e6572000000000000000060448201526064016108a4565b8173ffffffffffffffffffffffffffffffffffffffff168173ffffffffffffffffffffffffffffffffffffffff16146107e25783547fffffffffffffffffffffffff00000000000000000000000000000000000000001673ffffffffffffffffffffffffffffffffffffffff8381169182178655604051908316907f8be0079c531659141344cd1fd0a4f28419497f9722a3daafe3b4186f6b6457e090600090a350505050565b80471015613146576040517f08c379a000000000000000000000000000000000000000000000000000000000815260206004820152601d60248201527f416464726573733a20696e73756666696369656e742062616c616e636500000060448201526064016108a4565b60008273ffffffffffffffffffffffffffffffffffffffff168260405160006040518083038185875af1925050503d80600081146131a0576040519150601f19603f3d011682016040523d82523d6000602084013e6131a5565b606091505b5050905080610655576040517f08c379a000000000000000000000000000000000000000000000000000000000815260206004820152603a60248201527f416464726573733a20756e61626c6520746f2073656e642076616c75652c207260448201527f6563697069656e74206d6179206861766520726576657274656400000000000060648201526084016108a4565b60006105b561360f565b36600061067c613756565b6060600082900361326a57505060408051602081019091526000815290565b60008260405160200161327f91815260200190565b604080517fffffffffffffffffffffffffffffffffffffffffffffffffffffffffffffffe08184030181529190529050601f5b8181815181106132c4576132c46140b6565b01602001517fff0000000000000000000000000000000000000000000000000000000000000016600003613319577fffffffffffffffffffffffffffffffffffffffffffffffffffffffffffffffff016132b2565b60008160010167ffffffffffffffff8111156133375761333761411f565b6040519080825280601f01601f191660200182016040528015613361576020820181803683370190505b50905060005b8281116133d457838181518110613380576133806140b6565b602001015160f81c60f81b82828151811061339d5761339d6140b6565b60200101907effffffffffffffffffffffffffffffffffffffffffffffffffffffffffffff1916908160001a905350600101613367565b50949350505050565b600061343f826040518060400160405280602081526020017f5361666545524332303a206c6f772d6c6576656c2063616c6c206661696c65648152508573ffffffffffffffffffffffffffffffffffffffff166138c09092919063ffffffff16565b805190915015610655578080602001905181019061345d9190614487565b610655576040517f08c379a000000000000000000000000000000000000000000000000000000000815260206004820152602a60248201527f5361666545524332303a204552433230206f7065726174696f6e20646964206e60448201527f6f7420737563636565640000000000000000000000000000000000000000000060648201526084016108a4565b6040517f4fc35859000000000000000000000000000000000000000000000000000000008082529073ffffffffffffffffffffffffffffffffffffffff851690634fc35859906135439089908990889088906004016144a9565b6020604051808303816000875af1158015613562573d6000803e3d6000fd5b505050506040513d601f19601f8201168201806040525081019061358691906144f2565b7fffffffff0000000000000000000000000000000000000000000000000000000016146113cf576040517f08c379a000000000000000000000000000000000000000000000000000000000815260206004820152601d60248201527f45524332303a2073616665207472616e736665722072656a656374656400000060448201526064016108a4565b60003332148061361f5750601836105b1561362957503390565b7fffffffffffffffffffffffffffffffffffffffffffffffffffffffffffffffec36013560601c7f000000000000000000000000000000000000000000000000000000000000000073ffffffffffffffffffffffffffffffffffffffff1633148061374557506040517f8929a8ca00000000000000000000000000000000000000000000000000000000815273ffffffffffffffffffffffffffffffffffffffff82811660048301523360248301527f00000000000000000000000000000000000000000000000000000000000000001690638929a8ca90604401602060405180830381865afa158015613721573d6000803e3d6000fd5b505050506040513d601f19601f820116820180604052508101906137459190614487565b1561374f57919050565b3391505090565b366000333214806137675750601836105b156137755750600091369150565b3373ffffffffffffffffffffffffffffffffffffffff7f00000000000000000000000000000000000000000000000000000000000000001614806138aa575073ffffffffffffffffffffffffffffffffffffffff7f000000000000000000000000000000000000000000000000000000000000000016638929a8ca367fffffffffffffffffffffffffffffffffffffffffffffffffffffffffffffffec013560601c6040517fffffffff0000000000000000000000000000000000000000000000000000000060e084901b16815273ffffffffffffffffffffffffffffffffffffffff9091166004820152336024820152604401602060405180830381865afa158015613886573d6000803e3d6000fd5b505050506040513d601f19601f820116820180604052508101906138aa9190614487565b156138b75761067c6138cf565b50600091369150565b60606109858484600085613900565b36600061067c7fffffffffffffffffffffffffffffffffffffffffffffffffffffffffffffffec830182848161450f565b606082471015613992576040517f08c379a000000000000000000000000000000000000000000000000000000000815260206004820152602660248201527f416464726573733a20696e73756666696369656e742062616c616e636520666f60448201527f722063616c6c000000000000000000000000000000000000000000000000000060648201526084016108a4565b6000808673ffffffffffffffffffffffffffffffffffffffff1685876040516139bb9190614539565b60006040518083038185875af1925050503d80600081146139f8576040519150601f19603f3d011682016040523d82523d6000602084013e6139fd565b606091505b5091509150613a0e87838387613a19565b979650505050505050565b60608315613aaf578251600003613aa85773ffffffffffffffffffffffffffffffffffffffff85163b613aa8576040517f08c379a000000000000000000000000000000000000000000000000000000000815260206004820152601d60248201527f416464726573733a2063616c6c20746f206e6f6e2d636f6e747261637400000060448201526064016108a4565b5081610985565b6109858383815115613ac45781518083602001fd5b806040517f08c379a00000000000000000000000000000000000000000000000000000000081526004016108a49190613bb1565b7fffffffff00000000000000000000000000000000000000000000000000000000811681146109a857600080fd5b600060208284031215613b3857600080fd5b8135610a1681613af8565b60005b83811015613b5e578181015183820152602001613b46565b50506000910152565b60008151808452613b7f816020860160208601613b43565b601f017fffffffffffffffffffffffffffffffffffffffffffffffffffffffffffffffe0169290920160200192915050565b602081526000610a166020830184613b67565b73ffffffffffffffffffffffffffffffffffffffff811681146109a857600080fd5b60008060408385031215613bf957600080fd5b8235613c0481613bc4565b946020939093013593505050565b600080600060608486031215613c2757600080fd5b8335613c3281613bc4565b92506020840135613c4281613bc4565b929592945050506040919091013590565b60008060408385031215613c6657600080fd5b823591506020830135613c7881613bc4565b809150509250929050565b60208152816020820152818360408301376000818301604090810191909152601f9092017fffffffffffffffffffffffffffffffffffffffffffffffffffffffffffffffe0160101919050565b60008083601f840112613ce257600080fd5b50813567ffffffffffffffff811115613cfa57600080fd5b6020830191508360208260051b8501011115613d1557600080fd5b9250929050565b600080600080600060608688031215613d3457600080fd5b8535613d3f81613bc4565b9450602086013567ffffffffffffffff80821115613d5c57600080fd5b613d6889838a01613cd0565b90965094506040880135915080821115613d8157600080fd5b50613d8e88828901613cd0565b969995985093965092949392505050565b600060208284031215613db157600080fd5b8135610a1681613bc4565b60008060008060408587031215613dd257600080fd5b843567ffffffffffffffff80821115613dea57600080fd5b613df688838901613cd0565b90965094506020870135915080821115613e0f57600080fd5b50613e1c87828801613cd0565b95989497509550505050565b60008060008060008060608789031215613e4157600080fd5b863567ffffffffffffffff80821115613e5957600080fd5b613e658a838b01613cd0565b90985096506020890135915080821115613e7e57600080fd5b613e8a8a838b01613cd0565b90965094506040890135915080821115613ea357600080fd5b50613eb089828a01613cd0565b979a9699509497509295939492505050565b600060208284031215613ed457600080fd5b5035919050565b60008083601f840112613eed57600080fd5b50813567ffffffffffffffff811115613f0557600080fd5b602083019150836020828501011115613d1557600080fd5b600080600080600060808688031215613f3557600080fd5b8535613f4081613bc4565b94506020860135613f5081613bc4565b935060408601359250606086013567ffffffffffffffff811115613f7357600080fd5b613d8e88828901613edb565b600080600080600080600060e0888a031215613f9a57600080fd5b8735613fa581613bc4565b96506020880135613fb581613bc4565b95506040880135945060608801359350608088013560ff81168114613fd957600080fd5b9699959850939692959460a0840135945060c09093013592915050565b6000806040838503121561400957600080fd5b823561401481613bc4565b91506020830135613c7881613bc4565b6000806020838503121561403757600080fd5b823567ffffffffffffffff81111561404e57600080fd5b61405a85828601613edb565b90969095509350505050565b6000806000806060858703121561407c57600080fd5b843561408781613bc4565b935060208501359250604085013567ffffffffffffffff8111156140aa57600080fd5b613e1c87828801613edb565b7f4e487b7100000000000000000000000000000000000000000000000000000000600052603260045260246000fd5b8181038181111561059d577f4e487b7100000000000000000000000000000000000000000000000000000000600052601160045260246000fd5b7f4e487b7100000000000000000000000000000000000000000000000000000000600052604160045260246000fd5b600181811c9082168061416257607f821691505b60208210810361419b577f4e487b7100000000000000000000000000000000000000000000000000000000600052602260045260246000fd5b50919050565b601f82111561065557600081815260208120601f850160051c810160208610156141c85750805b601f850160051c820191505b81811015610e1a578281556001016141d4565b815167ffffffffffffffff8111156142015761420161411f565b6142158161420f845461414e565b846141a1565b602080601f83116001811461426857600084156142325750858301515b7fffffffffffffffffffffffffffffffffffffffffffffffffffffffffffffffff600386901b1c1916600185901b178555610e1a565b6000858152602081207fffffffffffffffffffffffffffffffffffffffffffffffffffffffffffffffe08616915b828110156142b557888601518255948401946001909101908401614296565b50858210156142f157878501517fffffffffffffffffffffffffffffffffffffffffffffffffffffffffffffffff600388901b60f8161c191681555b5050505050600190811b01905550565b7f416363657373436f6e74726f6c3a206d697373696e6720270000000000000000815260008251614339816018850160208701613b43565b7f2720726f6c6500000000000000000000000000000000000000000000000000006018939091019283015250601e01919050565b67ffffffffffffffff8311156143855761438561411f565b61439983614393835461414e565b836141a1565b6000601f8411600181146143eb57600085156143b55750838201355b7fffffffffffffffffffffffffffffffffffffffffffffffffffffffffffffffff600387901b1c1916600186901b1783556113cf565b6000838152602090207fffffffffffffffffffffffffffffffffffffffffffffffffffffffffffffffe0861690835b8281101561443a578685013582556020948501946001909201910161441a565b5086821015614475577fffffffffffffffffffffffffffffffffffffffffffffffffffffffffffffffff60f88860031b161c19848701351681555b505060018560011b0183555050505050565b60006020828403121561449957600080fd5b81518015158114610a1657600080fd5b600073ffffffffffffffffffffffffffffffffffffffff8087168352808616602084015250836040830152608060608301526144e86080830184613b67565b9695505050505050565b60006020828403121561450457600080fd5b8151610a1681613af8565b6000808585111561451f57600080fd5b8386111561452c57600080fd5b5050820193919092039150565b6000825161454b818460208701613b43565b919091019291505056fea2646970667358221220b2b5469e3acdc8ab19ff2c9239ce9bdf803b689efd4e0289676285bdbe8b457a64736f6c63430008110033",
  "linkReferences": {},
  "deployedLinkReferences": {}
}