{
  "address": "0x5d2e8CbdA16E1De4adfe6dC7C8380979014038aA",
  "abi": [
    {
      "inputs": [
        {
          "internalType": "address payable[]",
          "name": "gasPumps",
          "type": "address[]"
        }
      ],
      "stateMutability": "payable",
      "type": "constructor"
    },
    {
      "anonymous": false,
      "inputs": [
        {
          "indexed": true,
          "internalType": "address payable[]",
          "name": "oldGasPumps",
          "type": "address[]"
        },
        {
          "indexed": true,
          "internalType": "address payable",
          "name": "newGasPump",
          "type": "address"
        }
      ],
      "name": "AddGasPump",
      "type": "event"
    },
    {
      "anonymous": false,
      "inputs": [
        {
          "indexed": true,
          "internalType": "address payable[]",
          "name": "oldGasPumps",
          "type": "address[]"
        },
        {
          "indexed": true,
          "internalType": "address payable[]",
          "name": "newGasPumps",
          "type": "address[]"
        }
      ],
      "name": "GasPumpsSet",
      "type": "event"
    },
    {
      "anonymous": false,
      "inputs": [
        {
          "indexed": true,
          "internalType": "address",
          "name": "oldOwner",
          "type": "address"
        },
        {
          "indexed": true,
          "internalType": "address",
          "name": "newOwner",
          "type": "address"
        }
      ],
      "name": "OwnerSet",
      "type": "event"
    },
    {
      "anonymous": false,
      "inputs": [
        {
          "indexed": true,
          "internalType": "address",
          "name": "previousOwner",
          "type": "address"
        },
        {
          "indexed": true,
          "internalType": "address",
          "name": "newOwner",
          "type": "address"
        }
      ],
      "name": "OwnershipTransferred",
      "type": "event"
    },
    {
      "inputs": [
        {
          "internalType": "address payable",
          "name": "newGasPump",
          "type": "address"
        }
      ],
      "name": "addGasPump",
      "outputs": [],
      "stateMutability": "nonpayable",
      "type": "function"
    },
    {
      "inputs": [],
      "name": "chargeAllPumps",
      "outputs": [],
      "stateMutability": "payable",
      "type": "function"
    },
    {
      "inputs": [
        {
          "internalType": "address payable[]",
          "name": "addrs",
          "type": "address[]"
        }
      ],
      "name": "chargePumps",
      "outputs": [],
      "stateMutability": "payable",
      "type": "function"
    },
    {
      "inputs": [],
      "name": "getGasPumps",
      "outputs": [
        {
          "internalType": "address payable[]",
          "name": "",
          "type": "address[]"
        }
      ],
      "stateMutability": "view",
      "type": "function"
    },
    {
      "inputs": [],
      "name": "owner",
      "outputs": [
        {
          "internalType": "address",
          "name": "",
          "type": "address"
        }
      ],
      "stateMutability": "view",
      "type": "function"
    },
    {
      "inputs": [
        {
          "internalType": "uint256",
          "name": "",
          "type": "uint256"
        }
      ],
      "name": "pumps",
      "outputs": [
        {
          "internalType": "address payable",
          "name": "",
          "type": "address"
        }
      ],
      "stateMutability": "view",
      "type": "function"
    },
    {
      "inputs": [
        {
          "internalType": "address[]",
          "name": "accounts",
          "type": "address[]"
        },
        {
          "internalType": "contract IERC20[]",
          "name": "tokens",
          "type": "address[]"
        },
        {
          "internalType": "uint256[]",
          "name": "amounts",
          "type": "uint256[]"
        }
      ],
      "name": "recoverERC20s",
      "outputs": [],
      "stateMutability": "nonpayable",
      "type": "function"
    },
    {
      "inputs": [
        {
          "internalType": "address[]",
          "name": "accounts",
          "type": "address[]"
        },
        {
          "internalType": "contract IERC721[]",
          "name": "contracts",
          "type": "address[]"
        },
        {
          "internalType": "uint256[]",
          "name": "tokenIds",
          "type": "uint256[]"
        }
      ],
      "name": "recoverERC721s",
      "outputs": [],
      "stateMutability": "nonpayable",
      "type": "function"
    },
    {
      "inputs": [
        {
          "internalType": "address payable[]",
          "name": "accounts",
          "type": "address[]"
        },
        {
          "internalType": "uint256[]",
          "name": "amounts",
          "type": "uint256[]"
        }
      ],
      "name": "recoverETH",
      "outputs": [],
      "stateMutability": "nonpayable",
      "type": "function"
    },
    {
      "inputs": [
        {
          "internalType": "address payable[]",
          "name": "_gasPumps",
          "type": "address[]"
        }
      ],
      "name": "setGasPumps",
      "outputs": [],
      "stateMutability": "nonpayable",
      "type": "function"
    },
    {
      "inputs": [
        {
          "internalType": "bytes4",
          "name": "interfaceId",
          "type": "bytes4"
        }
      ],
      "name": "supportsInterface",
      "outputs": [
        {
          "internalType": "bool",
          "name": "",
          "type": "bool"
        }
      ],
      "stateMutability": "view",
      "type": "function"
    },
    {
      "inputs": [
        {
          "internalType": "address",
          "name": "newOwner",
          "type": "address"
        }
      ],
      "name": "transferOwnership",
      "outputs": [],
      "stateMutability": "nonpayable",
      "type": "function"
    }
  ],
  "transactionHash": "0xd14ac30aafdee813ad9f2c814a161f5c2220836ae031e358de4aaf97843910be",
  "args": [
    [
      "0xe44a1278e6217009Ad9aB61eBB24bD2C89657AE1",
      "0x6773317bee305063e6528b443b3d7b02D4ceA9f5",
      "0x1833915321D30afD05Fcc7EE334bFdf6D15D9b3f",
      "0x9972eaec34Aa23f8fF2606A42f490224e0d81807"
    ]
  ],
  "numDeployments": 1,
  "solcInputHash": "ba0ed0844abbe0090023f3bd40138a88",
  "bytecode": "0x6080604052604051620024cb380380620024cb83398101604081905262000026916200046d565b336200005581620000416200006c60201b62000ccc1760201c565b620000a260201b62000cfa1790919060201c565b50620000618162000135565b50346002556200061a565b6000806200009c60017fc9ed16f33ab3a66c84bfd83099ccb2a8845871e2e1c1928f63797152f0fd54cd62000555565b92915050565b6001600160a01b03811615620000f95781546001600160a01b0319166001600160a01b03821690811783556040516000907f8be0079c531659141344cd1fd0a4f28419497f9722a3daafe3b4186f6b6457e0908290a35b620001316307f5828d60e41b60016200011c620002be60201b62000db71760201c565b620002ee60201b62000de5179092919060201c565b5050565b6200013f6200037b565b6001600160a01b0316336001600160a01b031614620001a55760405162461bcd60e51b815260206004820152601360248201527f43616c6c6572206973206e6f74206f776e65720000000000000000000000000060448201526064015b60405180910390fd5b80604051620001b591906200056b565b60405180910390206000604051620001ce9190620005ac565b604051908190038120907f6d86fa282077cbb7e8dfb1e46d681667447b404489db833611f44ac272a3d64e90600090a3805162000213906000906020840190620003b9565b5060005b600054811015620001315760008181548110620002385762000238620005e8565b600091825260208220015481546001600160a01b0390911691600191819085908110620002695762000269620005e8565b6000918252602080832091909101546001600160a01b039081168452908301939093526040909101902080546001600160a01b0319169290911691909117905580620002b581620005fe565b91505062000217565b6000806200009c60017fca9d3e17f264b0f3984e2634e94adb37fa3e6a8103f06aeae6fa59e21c769f5e62000555565b600160e01b6001600160e01b03198316016200034d5760405162461bcd60e51b815260206004820152601f60248201527f496e74657266616365446574656374696f6e3a2077726f6e672076616c75650060448201526064016200019c565b6001600160e01b03199190911660009081526020929092526040909120805460ff1916911515919091179055565b6000620003a7620003966200006c60201b62000ccc1760201c565b620003ac60201b620006981760201c565b905090565b546001600160a01b031690565b82805482825590600052602060002090810192821562000411579160200282015b828111156200041157825182546001600160a01b0319166001600160a01b03909116178255602090920191600190910190620003da565b506200041f92915062000423565b5090565b5b808211156200041f576000815560010162000424565b634e487b7160e01b600052604160045260246000fd5b80516001600160a01b03811681146200046857600080fd5b919050565b600060208083850312156200048157600080fd5b82516001600160401b03808211156200049957600080fd5b818501915085601f830112620004ae57600080fd5b815181811115620004c357620004c36200043a565b8060051b604051601f19603f83011681018181108582111715620004eb57620004eb6200043a565b6040529182528482019250838101850191888311156200050a57600080fd5b938501935b828510156200053357620005238562000450565b845293850193928501926200050f565b98975050505050505050565b634e487b7160e01b600052601160045260246000fd5b818103818111156200009c576200009c6200053f565b815160009082906020808601845b83811015620005a05781516001600160a01b03168552938201939082019060010162000579565b50929695505050505050565b60008183548391508460005260208060002060005b83811015620005a05781546001600160a01b031685529382019360019182019101620005c1565b634e487b7160e01b600052603260045260246000fd5b6000600182016200061357620006136200053f565b5060010190565b611ea1806200062a6000396000f3fe6080604052600436106100c75760003560e01c8063adddc76711610074578063ce780aca1161004e578063ce780aca14610212578063f2fde38b1461021a578063f7ba94bd1461023a57600080fd5b8063adddc767146101b2578063be17cf79146101d2578063c3666c36146101f257600080fd5b806373c8a958116100a557806373c8a9581461013657806389cd7a7b146101565780638da5cb5b1461017857600080fd5b806301ffc9a7146100cc5780631446cef91461010157806327bd8ff114610116575b600080fd5b3480156100d857600080fd5b506100ec6100e73660046118bf565b61025a565b60405190151581526020015b60405180910390f35b61011461010f366004611969565b610274565b005b34801561012257600080fd5b50610114610131366004611969565b61031a565b34801561014257600080fd5b50610114610151366004611a98565b6104f1565b34801561016257600080fd5b5061016b61061c565b6040516100f89190611b32565b34801561018457600080fd5b5061018d61068b565b60405173ffffffffffffffffffffffffffffffffffffffff90911681526020016100f8565b3480156101be57600080fd5b5061018d6101cd366004611b8c565b6106b7565b3480156101de57600080fd5b506101146101ed366004611ba5565b6106ee565b3480156101fe57600080fd5b5061011461020d366004611a98565b610922565b610114610ac5565b34801561022657600080fd5b50610114610235366004611ba5565b610bcc565b34801561024657600080fd5b50610114610255366004611bc2565b610be0565b600061026e82610268610db7565b90610ef1565b92915050565b6000546102e2576040517f08c379a000000000000000000000000000000000000000000000000000000000815260206004820152600c60248201527f4e6f206761732070756d7073000000000000000000000000000000000000000060448201526064015b60405180910390fd5b34600260008282546102f49190611c5d565b9091555050805160025460009161030a91611c70565b90506103168282610fcb565b5050565b61032261068b565b73ffffffffffffffffffffffffffffffffffffffff163373ffffffffffffffffffffffffffffffffffffffff16146103b6576040517f08c379a000000000000000000000000000000000000000000000000000000000815260206004820152601360248201527f43616c6c6572206973206e6f74206f776e65720000000000000000000000000060448201526064016102d9565b806040516103c49190611cab565b604051809103902060006040516103db9190611cf7565b604051908190038120907f6d86fa282077cbb7e8dfb1e46d681667447b404489db833611f44ac272a3d64e90600090a3805161041e906000906020840190611820565b5060005b600054811015610316576000818154811061043f5761043f611d3e565b6000918252602082200154815473ffffffffffffffffffffffffffffffffffffffff9091169160019181908590811061047a5761047a611d3e565b60009182526020808320919091015473ffffffffffffffffffffffffffffffffffffffff9081168452908301939093526040909101902080547fffffffffffffffffffffffff00000000000000000000000000000000000000001692909116919091179055806104e981611d6d565b915050610422565b610504335b6104fe610ccc565b9061109a565b84838114801561051357508082145b610579576040517f08c379a000000000000000000000000000000000000000000000000000000000815260206004820152601d60248201527f5265636f766572793a20696e636f6e73697374656e742061727261797300000060448201526064016102d9565b60005b8181146106125761060a88888381811061059857610598611d3e565b90506020020160208101906105ad9190611ba5565b8585848181106105bf576105bf611d3e565b905060200201358888858181106105d8576105d8611d3e565b90506020020160208101906105ed9190611ba5565b73ffffffffffffffffffffffffffffffffffffffff16919061111d565b60010161057c565b5050505050505050565b6060600080548060200260200160405190810160405280929190818152602001828054801561068157602002820191906000526020600020905b815473ffffffffffffffffffffffffffffffffffffffff168152600190910190602001808311610656575b5050505050905090565b60006106b2610698610ccc565b5473ffffffffffffffffffffffffffffffffffffffff1690565b905090565b600081815481106106c757600080fd5b60009182526020909120015473ffffffffffffffffffffffffffffffffffffffff16905081565b6106f661068b565b73ffffffffffffffffffffffffffffffffffffffff163373ffffffffffffffffffffffffffffffffffffffff161461078a576040517f08c379a000000000000000000000000000000000000000000000000000000000815260206004820152601360248201527f43616c6c6572206973206e6f74206f776e65720000000000000000000000000060448201526064016102d9565b73ffffffffffffffffffffffffffffffffffffffff8082166000818152600160205260409020549091169003610842576040517f08c379a000000000000000000000000000000000000000000000000000000000815260206004820152602760248201527f4761732070756d7020697320616c72656164792070617274206f66207468652060448201527f73746174696f6e0000000000000000000000000000000000000000000000000060648201526084016102d9565b8073ffffffffffffffffffffffffffffffffffffffff1660006040516108689190611cf7565b604051908190038120907f868c7c1b68eb457bbf178161003499135b6d8964256bb9df30c562717fbbd82790600090a360008054600181810183557f290decd9548b62a8d60345a988386fc84ba6bc95484008f6362f93160ef3e563909101805473ffffffffffffffffffffffffffffffffffffffff9094167fffffffffffffffffffffffff0000000000000000000000000000000000000000948516811790915580835260209190915260409091208054909216179055565b61092b336104f6565b84838114801561093a57508082145b6109a0576040517f08c379a000000000000000000000000000000000000000000000000000000000815260206004820152601d60248201527f5265636f766572793a20696e636f6e73697374656e742061727261797300000060448201526064016102d9565b60005b818114610612578585828181106109bc576109bc611d3e565b90506020020160208101906109d19190611ba5565b73ffffffffffffffffffffffffffffffffffffffff166323b872dd308a8a858181106109ff576109ff611d3e565b9050602002016020810190610a149190611ba5565b878786818110610a2657610a26611d3e565b6040517fffffffff0000000000000000000000000000000000000000000000000000000060e088901b16815273ffffffffffffffffffffffffffffffffffffffff958616600482015294909316602485015250602090910201356044820152606401600060405180830381600087803b158015610aa257600080fd5b505af1158015610ab6573d6000803e3d6000fd5b505050508060010190506109a3565b600054610b2e576040517f08c379a000000000000000000000000000000000000000000000000000000000815260206004820152600c60248201527f4e6f206761732070756d7073000000000000000000000000000000000000000060448201526064016102d9565b3460026000828254610b409190611c5d565b909155505060008054600254610b569190611c70565b9050610bc96000805480602002602001604051908101604052809291908181526020018280548015610bbe57602002820191906000526020600020905b815473ffffffffffffffffffffffffffffffffffffffff168152600190910190602001808311610b93575b505050505082610fcb565b50565b610bc93382610bd9610ccc565b91906111aa565b610be9336104f6565b82818114610c53576040517f08c379a000000000000000000000000000000000000000000000000000000000815260206004820152601d60248201527f5265636f766572793a20696e636f6e73697374656e742061727261797300000060448201526064016102d9565b60005b818114610cc457610cbc848483818110610c7257610c72611d3e565b90506020020135878784818110610c8b57610c8b611d3e565b9050602002016020810190610ca09190611ba5565b73ffffffffffffffffffffffffffffffffffffffff16906112d7565b600101610c56565b505050505050565b60008061026e60017fc9ed16f33ab3a66c84bfd83099ccb2a8845871e2e1c1928f63797152f0fd54cd611da5565b73ffffffffffffffffffffffffffffffffffffffff811615610d825781547fffffffffffffffffffffffff00000000000000000000000000000000000000001673ffffffffffffffffffffffffffffffffffffffff821690811783556040516000907f8be0079c531659141344cd1fd0a4f28419497f9722a3daafe3b4186f6b6457e0908290a35b6103167f7f5828d0000000000000000000000000000000000000000000000000000000006001610db0610db7565b9190610de5565b60008061026e60017fca9d3e17f264b0f3984e2634e94adb37fa3e6a8103f06aeae6fa59e21c769f5e611da5565b7c01000000000000000000000000000000000000000000000000000000007fffffffff00000000000000000000000000000000000000000000000000000000831601610e8d576040517f08c379a000000000000000000000000000000000000000000000000000000000815260206004820152601f60248201527f496e74657266616365446574656374696f6e3a2077726f6e672076616c75650060448201526064016102d9565b7fffffffff00000000000000000000000000000000000000000000000000000000919091166000908152602092909252604090912080547fffffffffffffffffffffffffffffffffffffffffffffffffffffffffffffff0016911515919091179055565b60007c01000000000000000000000000000000000000000000000000000000007fffffffff00000000000000000000000000000000000000000000000000000000831601610f415750600061026e565b7ffe003659000000000000000000000000000000000000000000000000000000007fffffffff00000000000000000000000000000000000000000000000000000000831601610f925750600161026e565b507fffffffff00000000000000000000000000000000000000000000000000000000166000908152602091909152604090205460ff1690565b662386f26fc10000811161103b576040517f08c379a000000000000000000000000000000000000000000000000000000000815260206004820152601a60248201527f4d696e696d756d20302e3120657468207065722077616c6c657400000000000060448201526064016102d9565b60005b82518110156110955781600260008282546110599190611da5565b9250508190555061108383828151811061107557611075611d3e565b602002602001015183611431565b8061108d81611d6d565b91505061103e565b505050565b815473ffffffffffffffffffffffffffffffffffffffff828116911614610316576040517f08c379a000000000000000000000000000000000000000000000000000000000815260206004820152601860248201527f4f776e6572736869703a206e6f7420746865206f776e6572000000000000000060448201526064016102d9565b6040805173ffffffffffffffffffffffffffffffffffffffff8416602482015260448082018490528251808303909101815260649091019091526020810180517bffffffffffffffffffffffffffffffffffffffffffffffffffffffff167fa9059cbb00000000000000000000000000000000000000000000000000000000179052611095908490611505565b825473ffffffffffffffffffffffffffffffffffffffff908116908316811461122f576040517f08c379a000000000000000000000000000000000000000000000000000000000815260206004820152601860248201527f4f776e6572736869703a206e6f7420746865206f776e6572000000000000000060448201526064016102d9565b8173ffffffffffffffffffffffffffffffffffffffff168173ffffffffffffffffffffffffffffffffffffffff16146112d15783547fffffffffffffffffffffffff00000000000000000000000000000000000000001673ffffffffffffffffffffffffffffffffffffffff8381169182178655604051908316907f8be0079c531659141344cd1fd0a4f28419497f9722a3daafe3b4186f6b6457e090600090a35b50505050565b80471015611341576040517f08c379a000000000000000000000000000000000000000000000000000000000815260206004820152601d60248201527f416464726573733a20696e73756666696369656e742062616c616e636500000060448201526064016102d9565b60008273ffffffffffffffffffffffffffffffffffffffff168260405160006040518083038185875af1925050503d806000811461139b576040519150601f19603f3d011682016040523d82523d6000602084013e6113a0565b606091505b5050905080611095576040517f08c379a000000000000000000000000000000000000000000000000000000000815260206004820152603a60248201527f416464726573733a20756e61626c6520746f2073656e642076616c75652c207260448201527f6563697069656e74206d6179206861766520726576657274656400000000000060648201526084016102d9565b73ffffffffffffffffffffffffffffffffffffffff808316600081815260016020526040902054909116146114c2576040517f08c379a000000000000000000000000000000000000000000000000000000000815260206004820152600e60248201527f556e646566696e65642070756d7000000000000000000000000000000000000060448201526064016102d9565b60405173ffffffffffffffffffffffffffffffffffffffff83169082156108fc029083906000818181858888f19350505050158015611095573d6000803e3d6000fd5b6000611567826040518060400160405280602081526020017f5361666545524332303a206c6f772d6c6576656c2063616c6c206661696c65648152508573ffffffffffffffffffffffffffffffffffffffff166116119092919063ffffffff16565b80519091501561109557808060200190518101906115859190611db8565b611095576040517f08c379a000000000000000000000000000000000000000000000000000000000815260206004820152602a60248201527f5361666545524332303a204552433230206f7065726174696f6e20646964206e60448201527f6f7420737563636565640000000000000000000000000000000000000000000060648201526084016102d9565b60606116208484600085611628565b949350505050565b6060824710156116ba576040517f08c379a000000000000000000000000000000000000000000000000000000000815260206004820152602660248201527f416464726573733a20696e73756666696369656e742062616c616e636520666f60448201527f722063616c6c000000000000000000000000000000000000000000000000000060648201526084016102d9565b6000808673ffffffffffffffffffffffffffffffffffffffff1685876040516116e39190611dfe565b60006040518083038185875af1925050503d8060008114611720576040519150601f19603f3d011682016040523d82523d6000602084013e611725565b606091505b509150915061173687838387611741565b979650505050505050565b606083156117d75782516000036117d05773ffffffffffffffffffffffffffffffffffffffff85163b6117d0576040517f08c379a000000000000000000000000000000000000000000000000000000000815260206004820152601d60248201527f416464726573733a2063616c6c20746f206e6f6e2d636f6e747261637400000060448201526064016102d9565b5081611620565b61162083838151156117ec5781518083602001fd5b806040517f08c379a00000000000000000000000000000000000000000000000000000000081526004016102d99190611e1a565b82805482825590600052602060002090810192821561189a579160200282015b8281111561189a57825182547fffffffffffffffffffffffff00000000000000000000000000000000000000001673ffffffffffffffffffffffffffffffffffffffff909116178255602090920191600190910190611840565b506118a69291506118aa565b5090565b5b808211156118a657600081556001016118ab565b6000602082840312156118d157600080fd5b81357fffffffff000000000000000000000000000000000000000000000000000000008116811461190157600080fd5b9392505050565b7f4e487b7100000000000000000000000000000000000000000000000000000000600052604160045260246000fd5b73ffffffffffffffffffffffffffffffffffffffff81168114610bc957600080fd5b803561196481611937565b919050565b6000602080838503121561197c57600080fd5b823567ffffffffffffffff8082111561199457600080fd5b818501915085601f8301126119a857600080fd5b8135818111156119ba576119ba611908565b8060051b6040517fffffffffffffffffffffffffffffffffffffffffffffffffffffffffffffffe0603f830116810181811085821117156119fd576119fd611908565b604052918252848201925083810185019188831115611a1b57600080fd5b938501935b82851015611a4057611a3185611959565b84529385019392850192611a20565b98975050505050505050565b60008083601f840112611a5e57600080fd5b50813567ffffffffffffffff811115611a7657600080fd5b6020830191508360208260051b8501011115611a9157600080fd5b9250929050565b60008060008060008060608789031215611ab157600080fd5b863567ffffffffffffffff80821115611ac957600080fd5b611ad58a838b01611a4c565b90985096506020890135915080821115611aee57600080fd5b611afa8a838b01611a4c565b90965094506040890135915080821115611b1357600080fd5b50611b2089828a01611a4c565b979a9699509497509295939492505050565b6020808252825182820181905260009190848201906040850190845b81811015611b8057835173ffffffffffffffffffffffffffffffffffffffff1683529284019291840191600101611b4e565b50909695505050505050565b600060208284031215611b9e57600080fd5b5035919050565b600060208284031215611bb757600080fd5b813561190181611937565b60008060008060408587031215611bd857600080fd5b843567ffffffffffffffff80821115611bf057600080fd5b611bfc88838901611a4c565b90965094506020870135915080821115611c1557600080fd5b50611c2287828801611a4c565b95989497509550505050565b7f4e487b7100000000000000000000000000000000000000000000000000000000600052601160045260246000fd5b8082018082111561026e5761026e611c2e565b600082611ca6577f4e487b7100000000000000000000000000000000000000000000000000000000600052601260045260246000fd5b500490565b815160009082906020808601845b83811015611ceb57815173ffffffffffffffffffffffffffffffffffffffff1685529382019390820190600101611cb9565b50929695505050505050565b60008183548391508460005260208060002060005b83811015611ceb57815473ffffffffffffffffffffffffffffffffffffffff1685529382019360019182019101611d0c565b7f4e487b7100000000000000000000000000000000000000000000000000000000600052603260045260246000fd5b60007fffffffffffffffffffffffffffffffffffffffffffffffffffffffffffffffff8203611d9e57611d9e611c2e565b5060010190565b8181038181111561026e5761026e611c2e565b600060208284031215611dca57600080fd5b8151801515811461190157600080fd5b60005b83811015611df5578181015183820152602001611ddd565b50506000910152565b60008251611e10818460208701611dda565b9190910192915050565b6020815260008251806020840152611e39816040850160208701611dda565b601f017fffffffffffffffffffffffffffffffffffffffffffffffffffffffffffffffe016919091016040019291505056fea2646970667358221220963c5758586765a5b9c4f786c26238fd080909d678da3040708a71ea8a615d7a64736f6c63430008110033",
  "devdoc": {
    "kind": "dev",
    "methods": {
      "owner()": {
        "returns": {
          "_0": "The address of the contract owner."
        }
      },
      "recoverERC20s(address[],address[],uint256[])": {
        "details": "Warning: this function should be overriden for contracts which are supposed to hold ERC20 tokens  so that the extraction is limited to only amounts sent accidentally.Reverts if the sender is not the contract owner.Reverts if `accounts`, `tokens` and `amounts` do not have the same length.Reverts if one of the ERC20 transfers fails for any reason.",
        "params": {
          "accounts": "the list of accounts to transfer the tokens to.",
          "amounts": "the list of token amounts to transfer.",
          "tokens": "the list of ERC20 token addresses."
        }
      },
      "recoverERC721s(address[],address[],uint256[])": {
        "details": "Warning: this function should be overriden for contracts which are supposed to hold ERC721 tokens  so that the extraction is limited to only tokens sent accidentally.Reverts if the sender is not the contract owner.Reverts if `accounts`, `contracts` and `amounts` do not have the same length.Reverts if one of the ERC721 transfers fails for any reason.",
        "params": {
          "accounts": "the list of accounts to transfer the tokens to.",
          "contracts": "the list of ERC721 contract addresses.",
          "tokenIds": "the list of token ids to transfer."
        }
      },
      "recoverETH(address[],uint256[])": {
        "details": "Note: While contracts can generally prevent accidental ETH transfer by implementating a reverting  `receive()` function, this can still be bypassed in a `selfdestruct(address)` scenario.Warning: this function should be overriden for contracts which are supposed to hold ETH tokens  so that the extraction is limited to only amounts sent accidentally.Reverts if the sender is not the contract owner.Reverts if `accounts` and `amounts` do not have the same length.Reverts if one of the ETH transfers fails for any reason.",
        "params": {
          "accounts": "the list of accounts to transfer the tokens to.",
          "amounts": "the list of token amounts to transfer."
        }
      },
      "supportsInterface(bytes4)": {
        "details": "Note: This function call must use less than 30 000 gas.",
        "params": {
          "interfaceId": "the interface identifier to test."
        },
        "returns": {
          "_0": "True if the interface is supported, false if `interfaceId` is `0xffffffff` or if the interface is not supported."
        }
      },
      "transferOwnership(address)": {
        "details": "Reverts if the sender is not the contract owner.Emits an {OwnershipTransferred} event if `newOwner` is different from the current contract owner.",
        "params": {
          "newOwner": "The address of the new contract owner. Using the zero address means renouncing ownership."
        }
      }
    },
    "version": 1
  },
  "userdoc": {
    "events": {
      "OwnershipTransferred(address,address)": {
        "notice": "Emitted when the contract ownership changes."
      }
    },
    "kind": "user",
    "methods": {
      "owner()": {
        "notice": "Gets the address of the contract owner."
      },
      "recoverERC20s(address[],address[],uint256[])": {
        "notice": "Extract ERC20 tokens which were accidentally sent to the contract to a list of accounts."
      },
      "recoverERC721s(address[],address[],uint256[])": {
        "notice": "Extract ERC721 tokens which were accidentally sent to the contract to a list of accounts."
      },
      "recoverETH(address[],uint256[])": {
        "notice": "Extract ETH tokens which were accidentally sent to the contract to a list of accounts."
      },
      "supportsInterface(bytes4)": {
        "notice": "Returns whether this contract implements a given interface."
      },
      "transferOwnership(address)": {
        "notice": "Sets the address of the new contract owner."
      }
    },
    "version": 1
  },
  "storageLayout": {
    "storage": [
      {
        "astId": 1640,
        "contract": "contracts/GasStation.sol:OpenCampusGasStation",
        "label": "pumps",
        "offset": 0,
        "slot": "0",
        "type": "t_array(t_address_payable)dyn_storage"
      },
      {
        "astId": 1644,
        "contract": "contracts/GasStation.sol:OpenCampusGasStation",
        "label": "isPump",
        "offset": 0,
        "slot": "1",
        "type": "t_mapping(t_address,t_address_payable)"
      },
      {
        "astId": 1646,
        "contract": "contracts/GasStation.sol:OpenCampusGasStation",
        "label": "total_value",
        "offset": 0,
        "slot": "2",
        "type": "t_uint256"
      }
    ],
    "types": {
      "t_address": {
        "encoding": "inplace",
        "label": "address",
        "numberOfBytes": "20"
      },
      "t_address_payable": {
        "encoding": "inplace",
        "label": "address payable",
        "numberOfBytes": "20"
      },
      "t_array(t_address_payable)dyn_storage": {
        "base": "t_address_payable",
        "encoding": "dynamic_array",
        "label": "address payable[]",
        "numberOfBytes": "32"
      },
      "t_mapping(t_address,t_address_payable)": {
        "encoding": "mapping",
        "key": "t_address",
        "label": "mapping(address => address payable)",
        "numberOfBytes": "32",
        "value": "t_address_payable"
      },
      "t_uint256": {
        "encoding": "inplace",
        "label": "uint256",
        "numberOfBytes": "32"
      }
    }
  }
}